{
	"Contracts/Todo.sol": {
		"ToDo": {
			"abi": [
				{
					"inputs": [],
					"stateMutability": "nonpayable",
					"type": "constructor"
				},
				{
					"anonymous": false,
					"inputs": [
						{
							"indexed": false,
							"internalType": "uint256",
							"name": "taskId",
							"type": "uint256"
						},
						{
							"indexed": false,
							"internalType": "string",
							"name": "name",
							"type": "string"
						}
					],
					"name": "taskCreate",
					"type": "event"
				},
				{
					"anonymous": false,
					"inputs": [
						{
							"indexed": false,
							"internalType": "uint256",
							"name": "taskId",
							"type": "uint256"
						}
					],
					"name": "taskDelete",
					"type": "event"
				},
				{
					"anonymous": false,
					"inputs": [
						{
							"indexed": false,
							"internalType": "uint256",
							"name": "taskId",
							"type": "uint256"
						},
						{
							"indexed": false,
							"internalType": "string",
							"name": "name",
							"type": "string"
						}
					],
					"name": "taskUpdate",
					"type": "event"
				},
				{
					"inputs": [],
					"name": "allTask",
					"outputs": [
						{
							"components": [
								{
									"internalType": "uint256",
									"name": "id",
									"type": "uint256"
								},
								{
									"internalType": "string",
									"name": "name",
									"type": "string"
								},
								{
									"internalType": "string",
									"name": "date",
									"type": "string"
								}
							],
							"internalType": "struct ToDo.Task[]",
							"name": "",
							"type": "tuple[]"
						}
					],
					"stateMutability": "view",
					"type": "function"
				},
				{
					"inputs": [
						{
							"internalType": "string",
							"name": "_taskName",
							"type": "string"
						},
						{
							"internalType": "string",
							"name": "_date",
							"type": "string"
						}
					],
					"name": "createTask",
					"outputs": [],
					"stateMutability": "nonpayable",
					"type": "function"
				},
				{
					"inputs": [
						{
							"internalType": "uint256",
							"name": "_taskId",
							"type": "uint256"
						}
					],
					"name": "deleteTask",
					"outputs": [],
					"stateMutability": "nonpayable",
					"type": "function"
				},
				{
					"inputs": [
						{
							"internalType": "uint256",
							"name": "_taskId",
							"type": "uint256"
						},
						{
							"internalType": "string",
							"name": "_taskName",
							"type": "string"
						},
						{
							"internalType": "string",
							"name": "_date",
							"type": "string"
						}
					],
					"name": "updateTask",
					"outputs": [],
					"stateMutability": "nonpayable",
					"type": "function"
				},
				{
					"inputs": [
						{
							"internalType": "uint256",
							"name": "_taskId",
							"type": "uint256"
						}
					],
					"name": "viewTask",
					"outputs": [
						{
							"components": [
								{
									"internalType": "uint256",
									"name": "id",
									"type": "uint256"
								},
								{
									"internalType": "string",
									"name": "name",
									"type": "string"
								},
								{
									"internalType": "string",
									"name": "date",
									"type": "string"
								}
							],
							"internalType": "struct ToDo.Task",
							"name": "",
							"type": "tuple"
						}
					],
					"stateMutability": "view",
					"type": "function"
				}
			],
			"devdoc": {
				"kind": "dev",
				"methods": {},
				"version": 1
			},
			"evm": {
				"assembly": "    /* \"Contracts/Todo.sol\":58:1456  contract ToDo{... */\n  mstore(0x40, 0x80)\n    /* \"Contracts/Todo.sol\":249:250  1 */\n  0x01\n    /* \"Contracts/Todo.sol\":237:250  uint taskId=1 */\n  0x05\n  sstore\n    /* \"Contracts/Todo.sol\":487:533  constructor(){... */\n  callvalue\n  dup1\n  iszero\n  tag_1\n  jumpi\n  0x00\n  dup1\n  revert\ntag_1:\n  pop\n    /* \"Contracts/Todo.sol\":516:526  msg.sender */\n  caller\n    /* \"Contracts/Todo.sol\":510:515  owner */\n  0x00\n  dup1\n    /* \"Contracts/Todo.sol\":510:526  owner=msg.sender */\n  0x0100\n  exp\n  dup2\n  sload\n  dup2\n  0xffffffffffffffffffffffffffffffffffffffff\n  mul\n  not\n  and\n  swap1\n  dup4\n  0xffffffffffffffffffffffffffffffffffffffff\n  and\n  mul\n  or\n  swap1\n  sstore\n  pop\n    /* \"Contracts/Todo.sol\":58:1456  contract ToDo{... */\n  dataSize(sub_0)\n  dup1\n  dataOffset(sub_0)\n  0x00\n  codecopy\n  0x00\n  return\nstop\n\nsub_0: assembly {\n        /* \"Contracts/Todo.sol\":58:1456  contract ToDo{... */\n      mstore(0x40, 0x80)\n      callvalue\n      dup1\n      iszero\n      tag_1\n      jumpi\n      0x00\n      dup1\n      revert\n    tag_1:\n      pop\n      jumpi(tag_2, lt(calldatasize, 0x04))\n      shr(0xe0, calldataload(0x00))\n      dup1\n      0x292a4585\n      eq\n      tag_3\n      jumpi\n      dup1\n      0x3b3d7e56\n      eq\n      tag_4\n      jumpi\n      dup1\n      0x560f3192\n      eq\n      tag_5\n      jumpi\n      dup1\n      0x997c21a5\n      eq\n      tag_6\n      jumpi\n      dup1\n      0xc72ef41f\n      eq\n      tag_7\n      jumpi\n    tag_2:\n      0x00\n      dup1\n      revert\n        /* \"Contracts/Todo.sol\":539:747  function createTask(string calldata _taskName, string calldata _date) public { ... */\n    tag_3:\n      tag_8\n      0x04\n      dup1\n      calldatasize\n      sub\n      dup2\n      add\n      swap1\n      tag_9\n      swap2\n      swap1\n      tag_10\n      jump\t// in\n    tag_9:\n      tag_11\n      jump\t// in\n    tag_8:\n      stop\n        /* \"Contracts/Todo.sol\":1203:1322  function viewTask(uint _taskId) checkId(_taskId) public view returns(Task memory){... */\n    tag_4:\n      tag_12\n      0x04\n      dup1\n      calldatasize\n      sub\n      dup2\n      add\n      swap1\n      tag_13\n      swap2\n      swap1\n      tag_14\n      jump\t// in\n    tag_13:\n      tag_15\n      jump\t// in\n    tag_12:\n      mload(0x40)\n      tag_16\n      swap2\n      swap1\n      tag_17\n      jump\t// in\n    tag_16:\n      mload(0x40)\n      dup1\n      swap2\n      sub\n      swap1\n      return\n        /* \"Contracts/Todo.sol\":1328:1454  function deleteTask(uint _taskId) checkId(_taskId) public {... */\n    tag_5:\n      tag_18\n      0x04\n      dup1\n      calldatasize\n      sub\n      dup2\n      add\n      swap1\n      tag_19\n      swap2\n      swap1\n      tag_14\n      jump\t// in\n    tag_19:\n      tag_20\n      jump\t// in\n    tag_18:\n      stop\n        /* \"Contracts/Todo.sol\":973:1197  function allTask() public view returns(Task[] memory){... */\n    tag_6:\n      tag_21\n      tag_22\n      jump\t// in\n    tag_21:\n      mload(0x40)\n      tag_23\n      swap2\n      swap1\n      tag_24\n      jump\t// in\n    tag_23:\n      mload(0x40)\n      dup1\n      swap2\n      sub\n      swap1\n      return\n        /* \"Contracts/Todo.sol\":753:967  function updateTask(uint _taskId,string calldata _taskName, string calldata _date) checkId(_taskId) public {... */\n    tag_7:\n      tag_25\n      0x04\n      dup1\n      calldatasize\n      sub\n      dup2\n      add\n      swap1\n      tag_26\n      swap2\n      swap1\n      tag_27\n      jump\t// in\n    tag_26:\n      tag_28\n      jump\t// in\n    tag_25:\n      stop\n        /* \"Contracts/Todo.sol\":539:747  function createTask(string calldata _taskName, string calldata _date) public { ... */\n    tag_11:\n        /* \"Contracts/Todo.sol\":643:671  Task(taskId,_taskName,_date) */\n      mload(0x40)\n      dup1\n      0x60\n      add\n      0x40\n      mstore\n      dup1\n        /* \"Contracts/Todo.sol\":648:654  taskId */\n      sload(0x05)\n        /* \"Contracts/Todo.sol\":643:671  Task(taskId,_taskName,_date) */\n      dup2\n      mstore\n      0x20\n      add\n        /* \"Contracts/Todo.sol\":655:664  _taskName */\n      dup6\n      dup6\n        /* \"Contracts/Todo.sol\":643:671  Task(taskId,_taskName,_date) */\n      dup1\n      dup1\n      0x1f\n      add\n      0x20\n      dup1\n      swap2\n      div\n      mul\n      0x20\n      add\n      mload(0x40)\n      swap1\n      dup2\n      add\n      0x40\n      mstore\n      dup1\n      swap4\n      swap3\n      swap2\n      swap1\n      dup2\n      dup2\n      mstore\n      0x20\n      add\n      dup4\n      dup4\n      dup1\n      dup3\n      dup5\n      calldatacopy\n      0x00\n      dup2\n      dup5\n      add\n      mstore\n      not(0x1f)\n      0x1f\n      dup3\n      add\n      and\n      swap1\n      pop\n      dup1\n      dup4\n      add\n      swap3\n      pop\n      pop\n      pop\n      pop\n      pop\n      pop\n      pop\n      dup2\n      mstore\n      0x20\n      add\n        /* \"Contracts/Todo.sol\":665:670  _date */\n      dup4\n      dup4\n        /* \"Contracts/Todo.sol\":643:671  Task(taskId,_taskName,_date) */\n      dup1\n      dup1\n      0x1f\n      add\n      0x20\n      dup1\n      swap2\n      div\n      mul\n      0x20\n      add\n      mload(0x40)\n      swap1\n      dup2\n      add\n      0x40\n      mstore\n      dup1\n      swap4\n      swap3\n      swap2\n      swap1\n      dup2\n      dup2\n      mstore\n      0x20\n      add\n      dup4\n      dup4\n      dup1\n      dup3\n      dup5\n      calldatacopy\n      0x00\n      dup2\n      dup5\n      add\n      mstore\n      not(0x1f)\n      0x1f\n      dup3\n      add\n      and\n      swap1\n      pop\n      dup1\n      dup4\n      add\n      swap3\n      pop\n      pop\n      pop\n      pop\n      pop\n      pop\n      pop\n      dup2\n      mstore\n      pop\n        /* \"Contracts/Todo.sol\":629:634  tasks */\n      0x04\n        /* \"Contracts/Todo.sol\":629:642  tasks[taskId] */\n      0x00\n        /* \"Contracts/Todo.sol\":635:641  taskId */\n      sload(0x05)\n        /* \"Contracts/Todo.sol\":629:642  tasks[taskId] */\n      dup2\n      mstore\n      0x20\n      add\n      swap1\n      dup2\n      mstore\n      0x20\n      add\n      0x00\n      keccak256\n        /* \"Contracts/Todo.sol\":629:671  tasks[taskId]=Task(taskId,_taskName,_date) */\n      0x00\n      dup3\n      add\n      mload\n      dup2\n      0x00\n      add\n      sstore\n      0x20\n      dup3\n      add\n      mload\n      dup2\n      0x01\n      add\n      swap1\n      dup2\n      tag_30\n      swap2\n      swap1\n      tag_31\n      jump\t// in\n    tag_30:\n      pop\n      0x40\n      dup3\n      add\n      mload\n      dup2\n      0x02\n      add\n      swap1\n      dup2\n      tag_32\n      swap2\n      swap1\n      tag_31\n      jump\t// in\n    tag_32:\n      pop\n      swap1\n      pop\n      pop\n        /* \"Contracts/Todo.sol\":683:689  taskId */\n      0x05\n      0x00\n        /* \"Contracts/Todo.sol\":683:691  taskId++ */\n      dup2\n      sload\n      dup1\n      swap3\n      swap2\n      swap1\n      tag_33\n      swap1\n      tag_34\n      jump\t// in\n    tag_33:\n      swap2\n      swap1\n      pop\n      sstore\n      pop\n        /* \"Contracts/Todo.sol\":708:740  taskCreate(taskId - 1,_taskName) */\n      0x8d2940774d17f73b208e757bc4b4290cf4d29d6a7eb353d4b72e5eb87e73844d\n        /* \"Contracts/Todo.sol\":728:729  1 */\n      0x01\n        /* \"Contracts/Todo.sol\":719:725  taskId */\n      sload(0x05)\n        /* \"Contracts/Todo.sol\":719:729  taskId - 1 */\n      tag_35\n      swap2\n      swap1\n      tag_36\n      jump\t// in\n    tag_35:\n        /* \"Contracts/Todo.sol\":730:739  _taskName */\n      dup6\n      dup6\n        /* \"Contracts/Todo.sol\":708:740  taskCreate(taskId - 1,_taskName) */\n      mload(0x40)\n      tag_37\n      swap4\n      swap3\n      swap2\n      swap1\n      tag_38\n      jump\t// in\n    tag_37:\n      mload(0x40)\n      dup1\n      swap2\n      sub\n      swap1\n      log1\n        /* \"Contracts/Todo.sol\":539:747  function createTask(string calldata _taskName, string calldata _date) public { ... */\n      pop\n      pop\n      pop\n      pop\n      jump\t// out\n        /* \"Contracts/Todo.sol\":1203:1322  function viewTask(uint _taskId) checkId(_taskId) public view returns(Task memory){... */\n    tag_15:\n        /* \"Contracts/Todo.sol\":1272:1283  Task memory */\n      tag_39\n      tag_40\n      jump\t// in\n    tag_39:\n        /* \"Contracts/Todo.sol\":1243:1250  _taskId */\n      dup2\n        /* \"Contracts/Todo.sol\":435:436  0 */\n      0x00\n        /* \"Contracts/Todo.sol\":431:433  id */\n      dup2\n        /* \"Contracts/Todo.sol\":431:436  id!=0 */\n      eq\n      iszero\n        /* \"Contracts/Todo.sol\":431:449  id!=0 && id<taskId */\n      dup1\n      iszero\n      tag_42\n      jumpi\n      pop\n        /* \"Contracts/Todo.sol\":443:449  taskId */\n      sload(0x05)\n        /* \"Contracts/Todo.sol\":440:442  id */\n      dup2\n        /* \"Contracts/Todo.sol\":440:449  id<taskId */\n      lt\n        /* \"Contracts/Todo.sol\":431:449  id!=0 && id<taskId */\n    tag_42:\n        /* \"Contracts/Todo.sol\":423:463  require(id!=0 && id<taskId,\"Invalid Id\") */\n      tag_43\n      jumpi\n      mload(0x40)\n      0x08c379a000000000000000000000000000000000000000000000000000000000\n      dup2\n      mstore\n      0x04\n      add\n      tag_44\n      swap1\n      tag_45\n      jump\t// in\n    tag_44:\n      mload(0x40)\n      dup1\n      swap2\n      sub\n      swap1\n      revert\n    tag_43:\n        /* \"Contracts/Todo.sol\":1301:1306  tasks */\n      0x04\n        /* \"Contracts/Todo.sol\":1301:1315  tasks[_taskId] */\n      0x00\n        /* \"Contracts/Todo.sol\":1307:1314  _taskId */\n      dup5\n        /* \"Contracts/Todo.sol\":1301:1315  tasks[_taskId] */\n      dup2\n      mstore\n      0x20\n      add\n      swap1\n      dup2\n      mstore\n      0x20\n      add\n      0x00\n      keccak256\n        /* \"Contracts/Todo.sol\":1294:1315  return tasks[_taskId] */\n      mload(0x40)\n      dup1\n      0x60\n      add\n      0x40\n      mstore\n      swap1\n      dup2\n      0x00\n      dup3\n      add\n      sload\n      dup2\n      mstore\n      0x20\n      add\n      0x01\n      dup3\n      add\n      dup1\n      sload\n      tag_47\n      swap1\n      tag_48\n      jump\t// in\n    tag_47:\n      dup1\n      0x1f\n      add\n      0x20\n      dup1\n      swap2\n      div\n      mul\n      0x20\n      add\n      mload(0x40)\n      swap1\n      dup2\n      add\n      0x40\n      mstore\n      dup1\n      swap3\n      swap2\n      swap1\n      dup2\n      dup2\n      mstore\n      0x20\n      add\n      dup3\n      dup1\n      sload\n      tag_49\n      swap1\n      tag_48\n      jump\t// in\n    tag_49:\n      dup1\n      iszero\n      tag_50\n      jumpi\n      dup1\n      0x1f\n      lt\n      tag_51\n      jumpi\n      0x0100\n      dup1\n      dup4\n      sload\n      div\n      mul\n      dup4\n      mstore\n      swap2\n      0x20\n      add\n      swap2\n      jump(tag_50)\n    tag_51:\n      dup3\n      add\n      swap2\n      swap1\n      0x00\n      mstore\n      keccak256(0x00, 0x20)\n      swap1\n    tag_52:\n      dup2\n      sload\n      dup2\n      mstore\n      swap1\n      0x01\n      add\n      swap1\n      0x20\n      add\n      dup1\n      dup4\n      gt\n      tag_52\n      jumpi\n      dup3\n      swap1\n      sub\n      0x1f\n      and\n      dup3\n      add\n      swap2\n    tag_50:\n      pop\n      pop\n      pop\n      pop\n      pop\n      dup2\n      mstore\n      0x20\n      add\n      0x02\n      dup3\n      add\n      dup1\n      sload\n      tag_53\n      swap1\n      tag_48\n      jump\t// in\n    tag_53:\n      dup1\n      0x1f\n      add\n      0x20\n      dup1\n      swap2\n      div\n      mul\n      0x20\n      add\n      mload(0x40)\n      swap1\n      dup2\n      add\n      0x40\n      mstore\n      dup1\n      swap3\n      swap2\n      swap1\n      dup2\n      dup2\n      mstore\n      0x20\n      add\n      dup3\n      dup1\n      sload\n      tag_54\n      swap1\n      tag_48\n      jump\t// in\n    tag_54:\n      dup1\n      iszero\n      tag_55\n      jumpi\n      dup1\n      0x1f\n      lt\n      tag_56\n      jumpi\n      0x0100\n      dup1\n      dup4\n      sload\n      div\n      mul\n      dup4\n      mstore\n      swap2\n      0x20\n      add\n      swap2\n      jump(tag_55)\n    tag_56:\n      dup3\n      add\n      swap2\n      swap1\n      0x00\n      mstore\n      keccak256(0x00, 0x20)\n      swap1\n    tag_57:\n      dup2\n      sload\n      dup2\n      mstore\n      swap1\n      0x01\n      add\n      swap1\n      0x20\n      add\n      dup1\n      dup4\n      gt\n      tag_57\n      jumpi\n      dup3\n      swap1\n      sub\n      0x1f\n      and\n      dup3\n      add\n      swap2\n    tag_55:\n      pop\n      pop\n      pop\n      pop\n      pop\n      dup2\n      mstore\n      pop\n      pop\n      swap2\n      pop\n        /* \"Contracts/Todo.sol\":1203:1322  function viewTask(uint _taskId) checkId(_taskId) public view returns(Task memory){... */\n      pop\n      swap2\n      swap1\n      pop\n      jump\t// out\n        /* \"Contracts/Todo.sol\":1328:1454  function deleteTask(uint _taskId) checkId(_taskId) public {... */\n    tag_20:\n        /* \"Contracts/Todo.sol\":1370:1377  _taskId */\n      dup1\n        /* \"Contracts/Todo.sol\":435:436  0 */\n      0x00\n        /* \"Contracts/Todo.sol\":431:433  id */\n      dup2\n        /* \"Contracts/Todo.sol\":431:436  id!=0 */\n      eq\n      iszero\n        /* \"Contracts/Todo.sol\":431:449  id!=0 && id<taskId */\n      dup1\n      iszero\n      tag_59\n      jumpi\n      pop\n        /* \"Contracts/Todo.sol\":443:449  taskId */\n      sload(0x05)\n        /* \"Contracts/Todo.sol\":440:442  id */\n      dup2\n        /* \"Contracts/Todo.sol\":440:449  id<taskId */\n      lt\n        /* \"Contracts/Todo.sol\":431:449  id!=0 && id<taskId */\n    tag_59:\n        /* \"Contracts/Todo.sol\":423:463  require(id!=0 && id<taskId,\"Invalid Id\") */\n      tag_60\n      jumpi\n      mload(0x40)\n      0x08c379a000000000000000000000000000000000000000000000000000000000\n      dup2\n      mstore\n      0x04\n      add\n      tag_61\n      swap1\n      tag_45\n      jump\t// in\n    tag_61:\n      mload(0x40)\n      dup1\n      swap2\n      sub\n      swap1\n      revert\n    tag_60:\n        /* \"Contracts/Todo.sol\":1401:1406  tasks */\n      0x04\n        /* \"Contracts/Todo.sol\":1401:1415  tasks[_taskId] */\n      0x00\n        /* \"Contracts/Todo.sol\":1407:1414  _taskId */\n      dup4\n        /* \"Contracts/Todo.sol\":1401:1415  tasks[_taskId] */\n      dup2\n      mstore\n      0x20\n      add\n      swap1\n      dup2\n      mstore\n      0x20\n      add\n      0x00\n      keccak256\n      0x00\n        /* \"Contracts/Todo.sol\":1394:1415  delete tasks[_taskId] */\n      dup1\n      dup3\n      add\n      0x00\n      swap1\n      sstore\n      0x01\n      dup3\n      add\n      0x00\n      tag_63\n      swap2\n      swap1\n      tag_64\n      jump\t// in\n    tag_63:\n      0x02\n      dup3\n      add\n      0x00\n      tag_65\n      swap2\n      swap1\n      tag_64\n      jump\t// in\n    tag_65:\n      pop\n      pop\n        /* \"Contracts/Todo.sol\":1428:1447  taskDelete(_taskId) */\n      0xeae6ad3b4b47002b66d830fda22aeca77d9ebc4b21656b0c80880f26ffbfdf34\n        /* \"Contracts/Todo.sol\":1439:1446  _taskId */\n      dup3\n        /* \"Contracts/Todo.sol\":1428:1447  taskDelete(_taskId) */\n      mload(0x40)\n      tag_66\n      swap2\n      swap1\n      tag_67\n      jump\t// in\n    tag_66:\n      mload(0x40)\n      dup1\n      swap2\n      sub\n      swap1\n      log1\n        /* \"Contracts/Todo.sol\":1328:1454  function deleteTask(uint _taskId) checkId(_taskId) public {... */\n      pop\n      pop\n      jump\t// out\n        /* \"Contracts/Todo.sol\":973:1197  function allTask() public view returns(Task[] memory){... */\n    tag_22:\n        /* \"Contracts/Todo.sol\":1012:1025  Task[] memory */\n      0x60\n        /* \"Contracts/Todo.sol\":1036:1058  Task[] memory taskList */\n      0x00\n        /* \"Contracts/Todo.sol\":1079:1080  1 */\n      0x01\n        /* \"Contracts/Todo.sol\":1072:1078  taskId */\n      sload(0x05)\n        /* \"Contracts/Todo.sol\":1072:1080  taskId-1 */\n      tag_69\n      swap2\n      swap1\n      tag_36\n      jump\t// in\n    tag_69:\n        /* \"Contracts/Todo.sol\":1061:1081  new Task[](taskId-1) */\n      0xffffffffffffffff\n      dup2\n      gt\n      iszero\n      tag_70\n      jumpi\n      tag_71\n      tag_72\n      jump\t// in\n    tag_71:\n    tag_70:\n      mload(0x40)\n      swap1\n      dup1\n      dup3\n      mstore\n      dup1\n      0x20\n      mul\n      0x20\n      add\n      dup3\n      add\n      0x40\n      mstore\n      dup1\n      iszero\n      tag_73\n      jumpi\n      dup2\n      0x20\n      add\n    tag_74:\n      tag_75\n      tag_40\n      jump\t// in\n    tag_75:\n      dup2\n      mstore\n      0x20\n      add\n      swap1\n      0x01\n      swap1\n      sub\n      swap1\n      dup2\n      tag_74\n      jumpi\n      swap1\n      pop\n    tag_73:\n      pop\n        /* \"Contracts/Todo.sol\":1036:1081  Task[] memory taskList = new Task[](taskId-1) */\n      swap1\n      pop\n        /* \"Contracts/Todo.sol\":1095:1101  uint i */\n      0x00\n        /* \"Contracts/Todo.sol\":1091:1166  for(uint i=0;i<taskId-1;i++){... */\n    tag_76:\n        /* \"Contracts/Todo.sol\":1113:1114  1 */\n      0x01\n        /* \"Contracts/Todo.sol\":1106:1112  taskId */\n      sload(0x05)\n        /* \"Contracts/Todo.sol\":1106:1114  taskId-1 */\n      tag_79\n      swap2\n      swap1\n      tag_36\n      jump\t// in\n    tag_79:\n        /* \"Contracts/Todo.sol\":1104:1105  i */\n      dup2\n        /* \"Contracts/Todo.sol\":1104:1114  i<taskId-1 */\n      lt\n        /* \"Contracts/Todo.sol\":1091:1166  for(uint i=0;i<taskId-1;i++){... */\n      iszero\n      tag_77\n      jumpi\n        /* \"Contracts/Todo.sol\":1145:1150  tasks */\n      0x04\n        /* \"Contracts/Todo.sol\":1145:1155  tasks[i+1] */\n      0x00\n        /* \"Contracts/Todo.sol\":1153:1154  1 */\n      0x01\n        /* \"Contracts/Todo.sol\":1151:1152  i */\n      dup4\n        /* \"Contracts/Todo.sol\":1151:1154  i+1 */\n      tag_80\n      swap2\n      swap1\n      tag_81\n      jump\t// in\n    tag_80:\n        /* \"Contracts/Todo.sol\":1145:1155  tasks[i+1] */\n      dup2\n      mstore\n      0x20\n      add\n      swap1\n      dup2\n      mstore\n      0x20\n      add\n      0x00\n      keccak256\n        /* \"Contracts/Todo.sol\":1133:1155  taskList[i]=tasks[i+1] */\n      mload(0x40)\n      dup1\n      0x60\n      add\n      0x40\n      mstore\n      swap1\n      dup2\n      0x00\n      dup3\n      add\n      sload\n      dup2\n      mstore\n      0x20\n      add\n      0x01\n      dup3\n      add\n      dup1\n      sload\n      tag_82\n      swap1\n      tag_48\n      jump\t// in\n    tag_82:\n      dup1\n      0x1f\n      add\n      0x20\n      dup1\n      swap2\n      div\n      mul\n      0x20\n      add\n      mload(0x40)\n      swap1\n      dup2\n      add\n      0x40\n      mstore\n      dup1\n      swap3\n      swap2\n      swap1\n      dup2\n      dup2\n      mstore\n      0x20\n      add\n      dup3\n      dup1\n      sload\n      tag_83\n      swap1\n      tag_48\n      jump\t// in\n    tag_83:\n      dup1\n      iszero\n      tag_84\n      jumpi\n      dup1\n      0x1f\n      lt\n      tag_85\n      jumpi\n      0x0100\n      dup1\n      dup4\n      sload\n      div\n      mul\n      dup4\n      mstore\n      swap2\n      0x20\n      add\n      swap2\n      jump(tag_84)\n    tag_85:\n      dup3\n      add\n      swap2\n      swap1\n      0x00\n      mstore\n      keccak256(0x00, 0x20)\n      swap1\n    tag_86:\n      dup2\n      sload\n      dup2\n      mstore\n      swap1\n      0x01\n      add\n      swap1\n      0x20\n      add\n      dup1\n      dup4\n      gt\n      tag_86\n      jumpi\n      dup3\n      swap1\n      sub\n      0x1f\n      and\n      dup3\n      add\n      swap2\n    tag_84:\n      pop\n      pop\n      pop\n      pop\n      pop\n      dup2\n      mstore\n      0x20\n      add\n      0x02\n      dup3\n      add\n      dup1\n      sload\n      tag_87\n      swap1\n      tag_48\n      jump\t// in\n    tag_87:\n      dup1\n      0x1f\n      add\n      0x20\n      dup1\n      swap2\n      div\n      mul\n      0x20\n      add\n      mload(0x40)\n      swap1\n      dup2\n      add\n      0x40\n      mstore\n      dup1\n      swap3\n      swap2\n      swap1\n      dup2\n      dup2\n      mstore\n      0x20\n      add\n      dup3\n      dup1\n      sload\n      tag_88\n      swap1\n      tag_48\n      jump\t// in\n    tag_88:\n      dup1\n      iszero\n      tag_89\n      jumpi\n      dup1\n      0x1f\n      lt\n      tag_90\n      jumpi\n      0x0100\n      dup1\n      dup4\n      sload\n      div\n      mul\n      dup4\n      mstore\n      swap2\n      0x20\n      add\n      swap2\n      jump(tag_89)\n    tag_90:\n      dup3\n      add\n      swap2\n      swap1\n      0x00\n      mstore\n      keccak256(0x00, 0x20)\n      swap1\n    tag_91:\n      dup2\n      sload\n      dup2\n      mstore\n      swap1\n      0x01\n      add\n      swap1\n      0x20\n      add\n      dup1\n      dup4\n      gt\n      tag_91\n      jumpi\n      dup3\n      swap1\n      sub\n      0x1f\n      and\n      dup3\n      add\n      swap2\n    tag_89:\n      pop\n      pop\n      pop\n      pop\n      pop\n      dup2\n      mstore\n      pop\n      pop\n        /* \"Contracts/Todo.sol\":1133:1141  taskList */\n      dup3\n        /* \"Contracts/Todo.sol\":1142:1143  i */\n      dup3\n        /* \"Contracts/Todo.sol\":1133:1144  taskList[i] */\n      dup2\n      mload\n      dup2\n      lt\n      tag_92\n      jumpi\n      tag_93\n      tag_94\n      jump\t// in\n    tag_93:\n    tag_92:\n      0x20\n      mul\n      0x20\n      add\n      add\n        /* \"Contracts/Todo.sol\":1133:1155  taskList[i]=tasks[i+1] */\n      dup2\n      swap1\n      mstore\n      pop\n        /* \"Contracts/Todo.sol\":1115:1118  i++ */\n      dup1\n      dup1\n      0x01\n      add\n      swap2\n      pop\n      pop\n        /* \"Contracts/Todo.sol\":1091:1166  for(uint i=0;i<taskId-1;i++){... */\n      jump(tag_76)\n    tag_77:\n      pop\n        /* \"Contracts/Todo.sol\":1182:1190  taskList */\n      dup1\n        /* \"Contracts/Todo.sol\":1175:1190  return taskList */\n      swap2\n      pop\n      pop\n        /* \"Contracts/Todo.sol\":973:1197  function allTask() public view returns(Task[] memory){... */\n      swap1\n      jump\t// out\n        /* \"Contracts/Todo.sol\":753:967  function updateTask(uint _taskId,string calldata _taskName, string calldata _date) checkId(_taskId) public {... */\n    tag_28:\n        /* \"Contracts/Todo.sol\":844:851  _taskId */\n      dup5\n        /* \"Contracts/Todo.sol\":435:436  0 */\n      0x00\n        /* \"Contracts/Todo.sol\":431:433  id */\n      dup2\n        /* \"Contracts/Todo.sol\":431:436  id!=0 */\n      eq\n      iszero\n        /* \"Contracts/Todo.sol\":431:449  id!=0 && id<taskId */\n      dup1\n      iszero\n      tag_96\n      jumpi\n      pop\n        /* \"Contracts/Todo.sol\":443:449  taskId */\n      sload(0x05)\n        /* \"Contracts/Todo.sol\":440:442  id */\n      dup2\n        /* \"Contracts/Todo.sol\":440:449  id<taskId */\n      lt\n        /* \"Contracts/Todo.sol\":431:449  id!=0 && id<taskId */\n    tag_96:\n        /* \"Contracts/Todo.sol\":423:463  require(id!=0 && id<taskId,\"Invalid Id\") */\n      tag_97\n      jumpi\n      mload(0x40)\n      0x08c379a000000000000000000000000000000000000000000000000000000000\n      dup2\n      mstore\n      0x04\n      add\n      tag_98\n      swap1\n      tag_45\n      jump\t// in\n    tag_98:\n      mload(0x40)\n      dup1\n      swap2\n      sub\n      swap1\n      revert\n    tag_97:\n        /* \"Contracts/Todo.sol\":887:916  Task(_taskId,_taskName,_date) */\n      mload(0x40)\n      dup1\n      0x60\n      add\n      0x40\n      mstore\n      dup1\n        /* \"Contracts/Todo.sol\":892:899  _taskId */\n      dup8\n        /* \"Contracts/Todo.sol\":887:916  Task(_taskId,_taskName,_date) */\n      dup2\n      mstore\n      0x20\n      add\n        /* \"Contracts/Todo.sol\":900:909  _taskName */\n      dup7\n      dup7\n        /* \"Contracts/Todo.sol\":887:916  Task(_taskId,_taskName,_date) */\n      dup1\n      dup1\n      0x1f\n      add\n      0x20\n      dup1\n      swap2\n      div\n      mul\n      0x20\n      add\n      mload(0x40)\n      swap1\n      dup2\n      add\n      0x40\n      mstore\n      dup1\n      swap4\n      swap3\n      swap2\n      swap1\n      dup2\n      dup2\n      mstore\n      0x20\n      add\n      dup4\n      dup4\n      dup1\n      dup3\n      dup5\n      calldatacopy\n      0x00\n      dup2\n      dup5\n      add\n      mstore\n      not(0x1f)\n      0x1f\n      dup3\n      add\n      and\n      swap1\n      pop\n      dup1\n      dup4\n      add\n      swap3\n      pop\n      pop\n      pop\n      pop\n      pop\n      pop\n      pop\n      dup2\n      mstore\n      0x20\n      add\n        /* \"Contracts/Todo.sol\":910:915  _date */\n      dup5\n      dup5\n        /* \"Contracts/Todo.sol\":887:916  Task(_taskId,_taskName,_date) */\n      dup1\n      dup1\n      0x1f\n      add\n      0x20\n      dup1\n      swap2\n      div\n      mul\n      0x20\n      add\n      mload(0x40)\n      swap1\n      dup2\n      add\n      0x40\n      mstore\n      dup1\n      swap4\n      swap3\n      swap2\n      swap1\n      dup2\n      dup2\n      mstore\n      0x20\n      add\n      dup4\n      dup4\n      dup1\n      dup3\n      dup5\n      calldatacopy\n      0x00\n      dup2\n      dup5\n      add\n      mstore\n      not(0x1f)\n      0x1f\n      dup3\n      add\n      and\n      swap1\n      pop\n      dup1\n      dup4\n      add\n      swap3\n      pop\n      pop\n      pop\n      pop\n      pop\n      pop\n      pop\n      dup2\n      mstore\n      pop\n        /* \"Contracts/Todo.sol\":870:875  tasks */\n      0x04\n        /* \"Contracts/Todo.sol\":870:884  tasks[_taskId] */\n      0x00\n        /* \"Contracts/Todo.sol\":876:883  _taskId */\n      dup9\n        /* \"Contracts/Todo.sol\":870:884  tasks[_taskId] */\n      dup2\n      mstore\n      0x20\n      add\n      swap1\n      dup2\n      mstore\n      0x20\n      add\n      0x00\n      keccak256\n        /* \"Contracts/Todo.sol\":870:916  tasks[_taskId] = Task(_taskId,_taskName,_date) */\n      0x00\n      dup3\n      add\n      mload\n      dup2\n      0x00\n      add\n      sstore\n      0x20\n      dup3\n      add\n      mload\n      dup2\n      0x01\n      add\n      swap1\n      dup2\n      tag_100\n      swap2\n      swap1\n      tag_31\n      jump\t// in\n    tag_100:\n      pop\n      0x40\n      dup3\n      add\n      mload\n      dup2\n      0x02\n      add\n      swap1\n      dup2\n      tag_101\n      swap2\n      swap1\n      tag_31\n      jump\t// in\n    tag_101:\n      pop\n      swap1\n      pop\n      pop\n        /* \"Contracts/Todo.sol\":931:960  taskUpdate(_taskId,_taskName) */\n      0x943adabf122c6ab07969fd6d8650cb507d5cbb254d4d8f7fa5abd989ea2b54d0\n        /* \"Contracts/Todo.sol\":942:949  _taskId */\n      dup7\n        /* \"Contracts/Todo.sol\":950:959  _taskName */\n      dup7\n      dup7\n        /* \"Contracts/Todo.sol\":931:960  taskUpdate(_taskId,_taskName) */\n      mload(0x40)\n      tag_102\n      swap4\n      swap3\n      swap2\n      swap1\n      tag_38\n      jump\t// in\n    tag_102:\n      mload(0x40)\n      dup1\n      swap2\n      sub\n      swap1\n      log1\n        /* \"Contracts/Todo.sol\":753:967  function updateTask(uint _taskId,string calldata _taskName, string calldata _date) checkId(_taskId) public {... */\n      pop\n      pop\n      pop\n      pop\n      pop\n      pop\n      jump\t// out\n    tag_40:\n      mload(0x40)\n      dup1\n      0x60\n      add\n      0x40\n      mstore\n      dup1\n      0x00\n      dup2\n      mstore\n      0x20\n      add\n      0x60\n      dup2\n      mstore\n      0x20\n      add\n      0x60\n      dup2\n      mstore\n      pop\n      swap1\n      jump\t// out\n    tag_64:\n      pop\n      dup1\n      sload\n      tag_103\n      swap1\n      tag_48\n      jump\t// in\n    tag_103:\n      0x00\n      dup3\n      sstore\n      dup1\n      0x1f\n      lt\n      tag_105\n      jumpi\n      pop\n      jump(tag_104)\n    tag_105:\n      0x1f\n      add\n      0x20\n      swap1\n      div\n      swap1\n      0x00\n      mstore\n      keccak256(0x00, 0x20)\n      swap1\n      dup2\n      add\n      swap1\n      tag_106\n      swap2\n      swap1\n      tag_107\n      jump\t// in\n    tag_106:\n    tag_104:\n      pop\n      jump\t// out\n    tag_107:\n    tag_108:\n      dup1\n      dup3\n      gt\n      iszero\n      tag_109\n      jumpi\n      0x00\n      dup2\n      0x00\n      swap1\n      sstore\n      pop\n      0x01\n      add\n      jump(tag_108)\n    tag_109:\n      pop\n      swap1\n      jump\t// out\n        /* \"#utility.yul\":88:205   */\n    tag_111:\n        /* \"#utility.yul\":197:198   */\n      0x00\n        /* \"#utility.yul\":194:195   */\n      dup1\n        /* \"#utility.yul\":187:199   */\n      revert\n        /* \"#utility.yul\":211:328   */\n    tag_112:\n        /* \"#utility.yul\":320:321   */\n      0x00\n        /* \"#utility.yul\":317:318   */\n      dup1\n        /* \"#utility.yul\":310:322   */\n      revert\n        /* \"#utility.yul\":334:451   */\n    tag_113:\n        /* \"#utility.yul\":443:444   */\n      0x00\n        /* \"#utility.yul\":440:441   */\n      dup1\n        /* \"#utility.yul\":433:445   */\n      revert\n        /* \"#utility.yul\":457:574   */\n    tag_114:\n        /* \"#utility.yul\":566:567   */\n      0x00\n        /* \"#utility.yul\":563:564   */\n      dup1\n        /* \"#utility.yul\":556:568   */\n      revert\n        /* \"#utility.yul\":580:697   */\n    tag_115:\n        /* \"#utility.yul\":689:690   */\n      0x00\n        /* \"#utility.yul\":686:687   */\n      dup1\n        /* \"#utility.yul\":679:691   */\n      revert\n        /* \"#utility.yul\":717:1270   */\n    tag_116:\n        /* \"#utility.yul\":775:783   */\n      0x00\n        /* \"#utility.yul\":785:791   */\n      dup1\n        /* \"#utility.yul\":835:838   */\n      dup4\n        /* \"#utility.yul\":828:832   */\n      0x1f\n        /* \"#utility.yul\":820:826   */\n      dup5\n        /* \"#utility.yul\":816:833   */\n      add\n        /* \"#utility.yul\":812:839   */\n      slt\n        /* \"#utility.yul\":802:924   */\n      tag_165\n      jumpi\n        /* \"#utility.yul\":843:922   */\n      tag_166\n      tag_113\n      jump\t// in\n    tag_166:\n        /* \"#utility.yul\":802:924   */\n    tag_165:\n        /* \"#utility.yul\":956:962   */\n      dup3\n        /* \"#utility.yul\":943:963   */\n      calldataload\n        /* \"#utility.yul\":933:963   */\n      swap1\n      pop\n        /* \"#utility.yul\":986:1004   */\n      0xffffffffffffffff\n        /* \"#utility.yul\":978:984   */\n      dup2\n        /* \"#utility.yul\":975:1005   */\n      gt\n        /* \"#utility.yul\":972:1089   */\n      iszero\n      tag_167\n      jumpi\n        /* \"#utility.yul\":1008:1087   */\n      tag_168\n      tag_114\n      jump\t// in\n    tag_168:\n        /* \"#utility.yul\":972:1089   */\n    tag_167:\n        /* \"#utility.yul\":1122:1126   */\n      0x20\n        /* \"#utility.yul\":1114:1120   */\n      dup4\n        /* \"#utility.yul\":1110:1127   */\n      add\n        /* \"#utility.yul\":1098:1127   */\n      swap2\n      pop\n        /* \"#utility.yul\":1176:1179   */\n      dup4\n        /* \"#utility.yul\":1168:1172   */\n      0x01\n        /* \"#utility.yul\":1160:1166   */\n      dup3\n        /* \"#utility.yul\":1156:1173   */\n      mul\n        /* \"#utility.yul\":1146:1154   */\n      dup4\n        /* \"#utility.yul\":1142:1174   */\n      add\n        /* \"#utility.yul\":1139:1180   */\n      gt\n        /* \"#utility.yul\":1136:1264   */\n      iszero\n      tag_169\n      jumpi\n        /* \"#utility.yul\":1183:1262   */\n      tag_170\n      tag_115\n      jump\t// in\n    tag_170:\n        /* \"#utility.yul\":1136:1264   */\n    tag_169:\n        /* \"#utility.yul\":717:1270   */\n      swap3\n      pop\n      swap3\n      swap1\n      pop\n      jump\t// out\n        /* \"#utility.yul\":1276:2150   */\n    tag_10:\n        /* \"#utility.yul\":1368:1374   */\n      0x00\n        /* \"#utility.yul\":1376:1382   */\n      dup1\n        /* \"#utility.yul\":1384:1390   */\n      0x00\n        /* \"#utility.yul\":1392:1398   */\n      dup1\n        /* \"#utility.yul\":1441:1443   */\n      0x40\n        /* \"#utility.yul\":1429:1438   */\n      dup6\n        /* \"#utility.yul\":1420:1427   */\n      dup8\n        /* \"#utility.yul\":1416:1439   */\n      sub\n        /* \"#utility.yul\":1412:1444   */\n      slt\n        /* \"#utility.yul\":1409:1528   */\n      iszero\n      tag_172\n      jumpi\n        /* \"#utility.yul\":1447:1526   */\n      tag_173\n      tag_111\n      jump\t// in\n    tag_173:\n        /* \"#utility.yul\":1409:1528   */\n    tag_172:\n        /* \"#utility.yul\":1595:1596   */\n      0x00\n        /* \"#utility.yul\":1584:1593   */\n      dup6\n        /* \"#utility.yul\":1580:1597   */\n      add\n        /* \"#utility.yul\":1567:1598   */\n      calldataload\n        /* \"#utility.yul\":1625:1643   */\n      0xffffffffffffffff\n        /* \"#utility.yul\":1617:1623   */\n      dup2\n        /* \"#utility.yul\":1614:1644   */\n      gt\n        /* \"#utility.yul\":1611:1728   */\n      iszero\n      tag_174\n      jumpi\n        /* \"#utility.yul\":1647:1726   */\n      tag_175\n      tag_112\n      jump\t// in\n    tag_175:\n        /* \"#utility.yul\":1611:1728   */\n    tag_174:\n        /* \"#utility.yul\":1760:1825   */\n      tag_176\n        /* \"#utility.yul\":1817:1824   */\n      dup8\n        /* \"#utility.yul\":1808:1814   */\n      dup3\n        /* \"#utility.yul\":1797:1806   */\n      dup9\n        /* \"#utility.yul\":1793:1815   */\n      add\n        /* \"#utility.yul\":1760:1825   */\n      tag_116\n      jump\t// in\n    tag_176:\n        /* \"#utility.yul\":1742:1825   */\n      swap5\n      pop\n      swap5\n      pop\n        /* \"#utility.yul\":1538:1835   */\n      pop\n        /* \"#utility.yul\":1902:1904   */\n      0x20\n        /* \"#utility.yul\":1891:1900   */\n      dup6\n        /* \"#utility.yul\":1887:1905   */\n      add\n        /* \"#utility.yul\":1874:1906   */\n      calldataload\n        /* \"#utility.yul\":1933:1951   */\n      0xffffffffffffffff\n        /* \"#utility.yul\":1925:1931   */\n      dup2\n        /* \"#utility.yul\":1922:1952   */\n      gt\n        /* \"#utility.yul\":1919:2036   */\n      iszero\n      tag_177\n      jumpi\n        /* \"#utility.yul\":1955:2034   */\n      tag_178\n      tag_112\n      jump\t// in\n    tag_178:\n        /* \"#utility.yul\":1919:2036   */\n    tag_177:\n        /* \"#utility.yul\":2068:2133   */\n      tag_179\n        /* \"#utility.yul\":2125:2132   */\n      dup8\n        /* \"#utility.yul\":2116:2122   */\n      dup3\n        /* \"#utility.yul\":2105:2114   */\n      dup9\n        /* \"#utility.yul\":2101:2123   */\n      add\n        /* \"#utility.yul\":2068:2133   */\n      tag_116\n      jump\t// in\n    tag_179:\n        /* \"#utility.yul\":2050:2133   */\n      swap3\n      pop\n      swap3\n      pop\n        /* \"#utility.yul\":1845:2143   */\n      pop\n        /* \"#utility.yul\":1276:2150   */\n      swap3\n      swap6\n      swap2\n      swap5\n      pop\n      swap3\n      pop\n      jump\t// out\n        /* \"#utility.yul\":2156:2233   */\n    tag_117:\n        /* \"#utility.yul\":2193:2200   */\n      0x00\n        /* \"#utility.yul\":2222:2227   */\n      dup2\n        /* \"#utility.yul\":2211:2227   */\n      swap1\n      pop\n        /* \"#utility.yul\":2156:2233   */\n      swap2\n      swap1\n      pop\n      jump\t// out\n        /* \"#utility.yul\":2239:2361   */\n    tag_118:\n        /* \"#utility.yul\":2312:2336   */\n      tag_182\n        /* \"#utility.yul\":2330:2335   */\n      dup2\n        /* \"#utility.yul\":2312:2336   */\n      tag_117\n      jump\t// in\n    tag_182:\n        /* \"#utility.yul\":2305:2310   */\n      dup2\n        /* \"#utility.yul\":2302:2337   */\n      eq\n        /* \"#utility.yul\":2292:2355   */\n      tag_183\n      jumpi\n        /* \"#utility.yul\":2351:2352   */\n      0x00\n        /* \"#utility.yul\":2348:2349   */\n      dup1\n        /* \"#utility.yul\":2341:2353   */\n      revert\n        /* \"#utility.yul\":2292:2355   */\n    tag_183:\n        /* \"#utility.yul\":2239:2361   */\n      pop\n      jump\t// out\n        /* \"#utility.yul\":2367:2506   */\n    tag_119:\n        /* \"#utility.yul\":2413:2418   */\n      0x00\n        /* \"#utility.yul\":2451:2457   */\n      dup2\n        /* \"#utility.yul\":2438:2458   */\n      calldataload\n        /* \"#utility.yul\":2429:2458   */\n      swap1\n      pop\n        /* \"#utility.yul\":2467:2500   */\n      tag_185\n        /* \"#utility.yul\":2494:2499   */\n      dup2\n        /* \"#utility.yul\":2467:2500   */\n      tag_118\n      jump\t// in\n    tag_185:\n        /* \"#utility.yul\":2367:2506   */\n      swap3\n      swap2\n      pop\n      pop\n      jump\t// out\n        /* \"#utility.yul\":2512:2841   */\n    tag_14:\n        /* \"#utility.yul\":2571:2577   */\n      0x00\n        /* \"#utility.yul\":2620:2622   */\n      0x20\n        /* \"#utility.yul\":2608:2617   */\n      dup3\n        /* \"#utility.yul\":2599:2606   */\n      dup5\n        /* \"#utility.yul\":2595:2618   */\n      sub\n        /* \"#utility.yul\":2591:2623   */\n      slt\n        /* \"#utility.yul\":2588:2707   */\n      iszero\n      tag_187\n      jumpi\n        /* \"#utility.yul\":2626:2705   */\n      tag_188\n      tag_111\n      jump\t// in\n    tag_188:\n        /* \"#utility.yul\":2588:2707   */\n    tag_187:\n        /* \"#utility.yul\":2746:2747   */\n      0x00\n        /* \"#utility.yul\":2771:2824   */\n      tag_189\n        /* \"#utility.yul\":2816:2823   */\n      dup5\n        /* \"#utility.yul\":2807:2813   */\n      dup3\n        /* \"#utility.yul\":2796:2805   */\n      dup6\n        /* \"#utility.yul\":2792:2814   */\n      add\n        /* \"#utility.yul\":2771:2824   */\n      tag_119\n      jump\t// in\n    tag_189:\n        /* \"#utility.yul\":2761:2824   */\n      swap2\n      pop\n        /* \"#utility.yul\":2717:2834   */\n      pop\n        /* \"#utility.yul\":2512:2841   */\n      swap3\n      swap2\n      pop\n      pop\n      jump\t// out\n        /* \"#utility.yul\":2847:2955   */\n    tag_120:\n        /* \"#utility.yul\":2924:2948   */\n      tag_191\n        /* \"#utility.yul\":2942:2947   */\n      dup2\n        /* \"#utility.yul\":2924:2948   */\n      tag_117\n      jump\t// in\n    tag_191:\n        /* \"#utility.yul\":2919:2922   */\n      dup3\n        /* \"#utility.yul\":2912:2949   */\n      mstore\n        /* \"#utility.yul\":2847:2955   */\n      pop\n      pop\n      jump\t// out\n        /* \"#utility.yul\":2961:3060   */\n    tag_121:\n        /* \"#utility.yul\":3013:3019   */\n      0x00\n        /* \"#utility.yul\":3047:3052   */\n      dup2\n        /* \"#utility.yul\":3041:3053   */\n      mload\n        /* \"#utility.yul\":3031:3053   */\n      swap1\n      pop\n        /* \"#utility.yul\":2961:3060   */\n      swap2\n      swap1\n      pop\n      jump\t// out\n        /* \"#utility.yul\":3066:3225   */\n    tag_122:\n        /* \"#utility.yul\":3140:3151   */\n      0x00\n        /* \"#utility.yul\":3174:3180   */\n      dup3\n        /* \"#utility.yul\":3169:3172   */\n      dup3\n        /* \"#utility.yul\":3162:3181   */\n      mstore\n        /* \"#utility.yul\":3214:3218   */\n      0x20\n        /* \"#utility.yul\":3209:3212   */\n      dup3\n        /* \"#utility.yul\":3205:3219   */\n      add\n        /* \"#utility.yul\":3190:3219   */\n      swap1\n      pop\n        /* \"#utility.yul\":3066:3225   */\n      swap3\n      swap2\n      pop\n      pop\n      jump\t// out\n        /* \"#utility.yul\":3231:3370   */\n    tag_123:\n        /* \"#utility.yul\":3320:3326   */\n      dup3\n        /* \"#utility.yul\":3315:3318   */\n      dup2\n        /* \"#utility.yul\":3310:3313   */\n      dup4\n        /* \"#utility.yul\":3304:3327   */\n      mcopy\n        /* \"#utility.yul\":3361:3362   */\n      0x00\n        /* \"#utility.yul\":3352:3358   */\n      dup4\n        /* \"#utility.yul\":3347:3350   */\n      dup4\n        /* \"#utility.yul\":3343:3359   */\n      add\n        /* \"#utility.yul\":3336:3363   */\n      mstore\n        /* \"#utility.yul\":3231:3370   */\n      pop\n      pop\n      pop\n      jump\t// out\n        /* \"#utility.yul\":3376:3478   */\n    tag_124:\n        /* \"#utility.yul\":3417:3423   */\n      0x00\n        /* \"#utility.yul\":3468:3470   */\n      0x1f\n        /* \"#utility.yul\":3464:3471   */\n      not\n        /* \"#utility.yul\":3459:3461   */\n      0x1f\n        /* \"#utility.yul\":3452:3457   */\n      dup4\n        /* \"#utility.yul\":3448:3462   */\n      add\n        /* \"#utility.yul\":3444:3472   */\n      and\n        /* \"#utility.yul\":3434:3472   */\n      swap1\n      pop\n        /* \"#utility.yul\":3376:3478   */\n      swap2\n      swap1\n      pop\n      jump\t// out\n        /* \"#utility.yul\":3484:3841   */\n    tag_125:\n        /* \"#utility.yul\":3562:3565   */\n      0x00\n        /* \"#utility.yul\":3590:3629   */\n      tag_197\n        /* \"#utility.yul\":3623:3628   */\n      dup3\n        /* \"#utility.yul\":3590:3629   */\n      tag_121\n      jump\t// in\n    tag_197:\n        /* \"#utility.yul\":3645:3706   */\n      tag_198\n        /* \"#utility.yul\":3699:3705   */\n      dup2\n        /* \"#utility.yul\":3694:3697   */\n      dup6\n        /* \"#utility.yul\":3645:3706   */\n      tag_122\n      jump\t// in\n    tag_198:\n        /* \"#utility.yul\":3638:3706   */\n      swap4\n      pop\n        /* \"#utility.yul\":3715:3780   */\n      tag_199\n        /* \"#utility.yul\":3773:3779   */\n      dup2\n        /* \"#utility.yul\":3768:3771   */\n      dup6\n        /* \"#utility.yul\":3761:3765   */\n      0x20\n        /* \"#utility.yul\":3754:3759   */\n      dup7\n        /* \"#utility.yul\":3750:3766   */\n      add\n        /* \"#utility.yul\":3715:3780   */\n      tag_123\n      jump\t// in\n    tag_199:\n        /* \"#utility.yul\":3805:3834   */\n      tag_200\n        /* \"#utility.yul\":3827:3833   */\n      dup2\n        /* \"#utility.yul\":3805:3834   */\n      tag_124\n      jump\t// in\n    tag_200:\n        /* \"#utility.yul\":3800:3803   */\n      dup5\n        /* \"#utility.yul\":3796:3835   */\n      add\n        /* \"#utility.yul\":3789:3835   */\n      swap2\n      pop\n        /* \"#utility.yul\":3566:3841   */\n      pop\n        /* \"#utility.yul\":3484:3841   */\n      swap3\n      swap2\n      pop\n      pop\n      jump\t// out\n        /* \"#utility.yul\":3891:4728   */\n    tag_126:\n        /* \"#utility.yul\":3998:4001   */\n      0x00\n        /* \"#utility.yul\":4034:4038   */\n      0x60\n        /* \"#utility.yul\":4029:4032   */\n      dup4\n        /* \"#utility.yul\":4025:4039   */\n      add\n        /* \"#utility.yul\":4119:4123   */\n      0x00\n        /* \"#utility.yul\":4112:4117   */\n      dup4\n        /* \"#utility.yul\":4108:4124   */\n      add\n        /* \"#utility.yul\":4102:4125   */\n      mload\n        /* \"#utility.yul\":4138:4201   */\n      tag_202\n        /* \"#utility.yul\":4195:4199   */\n      0x00\n        /* \"#utility.yul\":4190:4193   */\n      dup7\n        /* \"#utility.yul\":4186:4200   */\n      add\n        /* \"#utility.yul\":4172:4184   */\n      dup3\n        /* \"#utility.yul\":4138:4201   */\n      tag_120\n      jump\t// in\n    tag_202:\n        /* \"#utility.yul\":4049:4211   */\n      pop\n        /* \"#utility.yul\":4293:4297   */\n      0x20\n        /* \"#utility.yul\":4286:4291   */\n      dup4\n        /* \"#utility.yul\":4282:4298   */\n      add\n        /* \"#utility.yul\":4276:4299   */\n      mload\n        /* \"#utility.yul\":4346:4349   */\n      dup5\n        /* \"#utility.yul\":4340:4344   */\n      dup3\n        /* \"#utility.yul\":4336:4350   */\n      sub\n        /* \"#utility.yul\":4329:4333   */\n      0x20\n        /* \"#utility.yul\":4324:4327   */\n      dup7\n        /* \"#utility.yul\":4320:4334   */\n      add\n        /* \"#utility.yul\":4313:4351   */\n      mstore\n        /* \"#utility.yul\":4372:4445   */\n      tag_203\n        /* \"#utility.yul\":4440:4444   */\n      dup3\n        /* \"#utility.yul\":4426:4438   */\n      dup3\n        /* \"#utility.yul\":4372:4445   */\n      tag_125\n      jump\t// in\n    tag_203:\n        /* \"#utility.yul\":4364:4445   */\n      swap2\n      pop\n        /* \"#utility.yul\":4221:4456   */\n      pop\n        /* \"#utility.yul\":4538:4542   */\n      0x40\n        /* \"#utility.yul\":4531:4536   */\n      dup4\n        /* \"#utility.yul\":4527:4543   */\n      add\n        /* \"#utility.yul\":4521:4544   */\n      mload\n        /* \"#utility.yul\":4591:4594   */\n      dup5\n        /* \"#utility.yul\":4585:4589   */\n      dup3\n        /* \"#utility.yul\":4581:4595   */\n      sub\n        /* \"#utility.yul\":4574:4578   */\n      0x40\n        /* \"#utility.yul\":4569:4572   */\n      dup7\n        /* \"#utility.yul\":4565:4579   */\n      add\n        /* \"#utility.yul\":4558:4596   */\n      mstore\n        /* \"#utility.yul\":4617:4690   */\n      tag_204\n        /* \"#utility.yul\":4685:4689   */\n      dup3\n        /* \"#utility.yul\":4671:4683   */\n      dup3\n        /* \"#utility.yul\":4617:4690   */\n      tag_125\n      jump\t// in\n    tag_204:\n        /* \"#utility.yul\":4609:4690   */\n      swap2\n      pop\n        /* \"#utility.yul\":4466:4701   */\n      pop\n        /* \"#utility.yul\":4718:4722   */\n      dup1\n        /* \"#utility.yul\":4711:4722   */\n      swap2\n      pop\n        /* \"#utility.yul\":4003:4728   */\n      pop\n        /* \"#utility.yul\":3891:4728   */\n      swap3\n      swap2\n      pop\n      pop\n      jump\t// out\n        /* \"#utility.yul\":4734:5083   */\n    tag_17:\n        /* \"#utility.yul\":4865:4869   */\n      0x00\n        /* \"#utility.yul\":4903:4905   */\n      0x20\n        /* \"#utility.yul\":4892:4901   */\n      dup3\n        /* \"#utility.yul\":4888:4906   */\n      add\n        /* \"#utility.yul\":4880:4906   */\n      swap1\n      pop\n        /* \"#utility.yul\":4952:4961   */\n      dup2\n        /* \"#utility.yul\":4946:4950   */\n      dup2\n        /* \"#utility.yul\":4942:4962   */\n      sub\n        /* \"#utility.yul\":4938:4939   */\n      0x00\n        /* \"#utility.yul\":4927:4936   */\n      dup4\n        /* \"#utility.yul\":4923:4940   */\n      add\n        /* \"#utility.yul\":4916:4963   */\n      mstore\n        /* \"#utility.yul\":4980:5076   */\n      tag_206\n        /* \"#utility.yul\":5071:5075   */\n      dup2\n        /* \"#utility.yul\":5062:5068   */\n      dup5\n        /* \"#utility.yul\":4980:5076   */\n      tag_126\n      jump\t// in\n    tag_206:\n        /* \"#utility.yul\":4972:5076   */\n      swap1\n      pop\n        /* \"#utility.yul\":4734:5083   */\n      swap3\n      swap2\n      pop\n      pop\n      jump\t// out\n        /* \"#utility.yul\":5089:5222   */\n    tag_127:\n        /* \"#utility.yul\":5175:5181   */\n      0x00\n        /* \"#utility.yul\":5209:5214   */\n      dup2\n        /* \"#utility.yul\":5203:5215   */\n      mload\n        /* \"#utility.yul\":5193:5215   */\n      swap1\n      pop\n        /* \"#utility.yul\":5089:5222   */\n      swap2\n      swap1\n      pop\n      jump\t// out\n        /* \"#utility.yul\":5228:5431   */\n    tag_128:\n        /* \"#utility.yul\":5346:5357   */\n      0x00\n        /* \"#utility.yul\":5380:5386   */\n      dup3\n        /* \"#utility.yul\":5375:5378   */\n      dup3\n        /* \"#utility.yul\":5368:5387   */\n      mstore\n        /* \"#utility.yul\":5420:5424   */\n      0x20\n        /* \"#utility.yul\":5415:5418   */\n      dup3\n        /* \"#utility.yul\":5411:5425   */\n      add\n        /* \"#utility.yul\":5396:5425   */\n      swap1\n      pop\n        /* \"#utility.yul\":5228:5431   */\n      swap3\n      swap2\n      pop\n      pop\n      jump\t// out\n        /* \"#utility.yul\":5437:5588   */\n    tag_129:\n        /* \"#utility.yul\":5523:5527   */\n      0x00\n        /* \"#utility.yul\":5546:5549   */\n      dup2\n        /* \"#utility.yul\":5538:5549   */\n      swap1\n      pop\n        /* \"#utility.yul\":5576:5580   */\n      0x20\n        /* \"#utility.yul\":5571:5574   */\n      dup3\n        /* \"#utility.yul\":5567:5581   */\n      add\n        /* \"#utility.yul\":5559:5581   */\n      swap1\n      pop\n        /* \"#utility.yul\":5437:5588   */\n      swap2\n      swap1\n      pop\n      jump\t// out\n        /* \"#utility.yul\":5638:6465   */\n    tag_130:\n        /* \"#utility.yul\":5735:5738   */\n      0x00\n        /* \"#utility.yul\":5771:5775   */\n      0x60\n        /* \"#utility.yul\":5766:5769   */\n      dup4\n        /* \"#utility.yul\":5762:5776   */\n      add\n        /* \"#utility.yul\":5856:5860   */\n      0x00\n        /* \"#utility.yul\":5849:5854   */\n      dup4\n        /* \"#utility.yul\":5845:5861   */\n      add\n        /* \"#utility.yul\":5839:5862   */\n      mload\n        /* \"#utility.yul\":5875:5938   */\n      tag_211\n        /* \"#utility.yul\":5932:5936   */\n      0x00\n        /* \"#utility.yul\":5927:5930   */\n      dup7\n        /* \"#utility.yul\":5923:5937   */\n      add\n        /* \"#utility.yul\":5909:5921   */\n      dup3\n        /* \"#utility.yul\":5875:5938   */\n      tag_120\n      jump\t// in\n    tag_211:\n        /* \"#utility.yul\":5786:5948   */\n      pop\n        /* \"#utility.yul\":6030:6034   */\n      0x20\n        /* \"#utility.yul\":6023:6028   */\n      dup4\n        /* \"#utility.yul\":6019:6035   */\n      add\n        /* \"#utility.yul\":6013:6036   */\n      mload\n        /* \"#utility.yul\":6083:6086   */\n      dup5\n        /* \"#utility.yul\":6077:6081   */\n      dup3\n        /* \"#utility.yul\":6073:6087   */\n      sub\n        /* \"#utility.yul\":6066:6070   */\n      0x20\n        /* \"#utility.yul\":6061:6064   */\n      dup7\n        /* \"#utility.yul\":6057:6071   */\n      add\n        /* \"#utility.yul\":6050:6088   */\n      mstore\n        /* \"#utility.yul\":6109:6182   */\n      tag_212\n        /* \"#utility.yul\":6177:6181   */\n      dup3\n        /* \"#utility.yul\":6163:6175   */\n      dup3\n        /* \"#utility.yul\":6109:6182   */\n      tag_125\n      jump\t// in\n    tag_212:\n        /* \"#utility.yul\":6101:6182   */\n      swap2\n      pop\n        /* \"#utility.yul\":5958:6193   */\n      pop\n        /* \"#utility.yul\":6275:6279   */\n      0x40\n        /* \"#utility.yul\":6268:6273   */\n      dup4\n        /* \"#utility.yul\":6264:6280   */\n      add\n        /* \"#utility.yul\":6258:6281   */\n      mload\n        /* \"#utility.yul\":6328:6331   */\n      dup5\n        /* \"#utility.yul\":6322:6326   */\n      dup3\n        /* \"#utility.yul\":6318:6332   */\n      sub\n        /* \"#utility.yul\":6311:6315   */\n      0x40\n        /* \"#utility.yul\":6306:6309   */\n      dup7\n        /* \"#utility.yul\":6302:6316   */\n      add\n        /* \"#utility.yul\":6295:6333   */\n      mstore\n        /* \"#utility.yul\":6354:6427   */\n      tag_213\n        /* \"#utility.yul\":6422:6426   */\n      dup3\n        /* \"#utility.yul\":6408:6420   */\n      dup3\n        /* \"#utility.yul\":6354:6427   */\n      tag_125\n      jump\t// in\n    tag_213:\n        /* \"#utility.yul\":6346:6427   */\n      swap2\n      pop\n        /* \"#utility.yul\":6203:6438   */\n      pop\n        /* \"#utility.yul\":6455:6459   */\n      dup1\n        /* \"#utility.yul\":6448:6459   */\n      swap2\n      pop\n        /* \"#utility.yul\":5740:6465   */\n      pop\n        /* \"#utility.yul\":5638:6465   */\n      swap3\n      swap2\n      pop\n      pop\n      jump\t// out\n        /* \"#utility.yul\":6471:6703   */\n    tag_131:\n        /* \"#utility.yul\":6578:6588   */\n      0x00\n        /* \"#utility.yul\":6613:6697   */\n      tag_215\n        /* \"#utility.yul\":6693:6696   */\n      dup4\n        /* \"#utility.yul\":6685:6691   */\n      dup4\n        /* \"#utility.yul\":6613:6697   */\n      tag_130\n      jump\t// in\n    tag_215:\n        /* \"#utility.yul\":6599:6697   */\n      swap1\n      pop\n        /* \"#utility.yul\":6471:6703   */\n      swap3\n      swap2\n      pop\n      pop\n      jump\t// out\n        /* \"#utility.yul\":6709:6841   */\n    tag_132:\n        /* \"#utility.yul\":6798:6802   */\n      0x00\n        /* \"#utility.yul\":6830:6834   */\n      0x20\n        /* \"#utility.yul\":6825:6828   */\n      dup3\n        /* \"#utility.yul\":6821:6835   */\n      add\n        /* \"#utility.yul\":6813:6835   */\n      swap1\n      pop\n        /* \"#utility.yul\":6709:6841   */\n      swap2\n      swap1\n      pop\n      jump\t// out\n        /* \"#utility.yul\":6895:7958   */\n    tag_133:\n        /* \"#utility.yul\":7052:7055   */\n      0x00\n        /* \"#utility.yul\":7081:7154   */\n      tag_218\n        /* \"#utility.yul\":7148:7153   */\n      dup3\n        /* \"#utility.yul\":7081:7154   */\n      tag_127\n      jump\t// in\n    tag_218:\n        /* \"#utility.yul\":7170:7275   */\n      tag_219\n        /* \"#utility.yul\":7268:7274   */\n      dup2\n        /* \"#utility.yul\":7263:7266   */\n      dup6\n        /* \"#utility.yul\":7170:7275   */\n      tag_128\n      jump\t// in\n    tag_219:\n        /* \"#utility.yul\":7163:7275   */\n      swap4\n      pop\n        /* \"#utility.yul\":7301:7304   */\n      dup4\n        /* \"#utility.yul\":7346:7350   */\n      0x20\n        /* \"#utility.yul\":7338:7344   */\n      dup3\n        /* \"#utility.yul\":7334:7351   */\n      mul\n        /* \"#utility.yul\":7329:7332   */\n      dup6\n        /* \"#utility.yul\":7325:7352   */\n      add\n        /* \"#utility.yul\":7376:7451   */\n      tag_220\n        /* \"#utility.yul\":7445:7450   */\n      dup6\n        /* \"#utility.yul\":7376:7451   */\n      tag_129\n      jump\t// in\n    tag_220:\n        /* \"#utility.yul\":7474:7481   */\n      dup1\n        /* \"#utility.yul\":7505:7506   */\n      0x00\n        /* \"#utility.yul\":7490:7913   */\n    tag_221:\n        /* \"#utility.yul\":7515:7521   */\n      dup6\n        /* \"#utility.yul\":7512:7513   */\n      dup2\n        /* \"#utility.yul\":7509:7522   */\n      lt\n        /* \"#utility.yul\":7490:7913   */\n      iszero\n      tag_223\n      jumpi\n        /* \"#utility.yul\":7586:7595   */\n      dup5\n        /* \"#utility.yul\":7580:7584   */\n      dup5\n        /* \"#utility.yul\":7576:7596   */\n      sub\n        /* \"#utility.yul\":7571:7574   */\n      dup10\n        /* \"#utility.yul\":7564:7597   */\n      mstore\n        /* \"#utility.yul\":7637:7643   */\n      dup2\n        /* \"#utility.yul\":7631:7644   */\n      mload\n        /* \"#utility.yul\":7665:7767   */\n      tag_224\n        /* \"#utility.yul\":7762:7766   */\n      dup6\n        /* \"#utility.yul\":7747:7760   */\n      dup3\n        /* \"#utility.yul\":7665:7767   */\n      tag_131\n      jump\t// in\n    tag_224:\n        /* \"#utility.yul\":7657:7767   */\n      swap5\n      pop\n        /* \"#utility.yul\":7790:7869   */\n      tag_225\n        /* \"#utility.yul\":7862:7868   */\n      dup4\n        /* \"#utility.yul\":7790:7869   */\n      tag_132\n      jump\t// in\n    tag_225:\n        /* \"#utility.yul\":7780:7869   */\n      swap3\n      pop\n        /* \"#utility.yul\":7898:7902   */\n      0x20\n        /* \"#utility.yul\":7893:7896   */\n      dup11\n        /* \"#utility.yul\":7889:7903   */\n      add\n        /* \"#utility.yul\":7882:7903   */\n      swap10\n      pop\n        /* \"#utility.yul\":7550:7913   */\n      pop\n        /* \"#utility.yul\":7537:7538   */\n      0x01\n        /* \"#utility.yul\":7534:7535   */\n      dup2\n        /* \"#utility.yul\":7530:7539   */\n      add\n        /* \"#utility.yul\":7525:7539   */\n      swap1\n      pop\n        /* \"#utility.yul\":7490:7913   */\n      jump(tag_221)\n    tag_223:\n        /* \"#utility.yul\":7494:7508   */\n      pop\n        /* \"#utility.yul\":7929:7933   */\n      dup3\n        /* \"#utility.yul\":7922:7933   */\n      swap8\n      pop\n        /* \"#utility.yul\":7949:7952   */\n      dup8\n        /* \"#utility.yul\":7942:7952   */\n      swap6\n      pop\n        /* \"#utility.yul\":7057:7958   */\n      pop\n      pop\n      pop\n      pop\n      pop\n        /* \"#utility.yul\":6895:7958   */\n      swap3\n      swap2\n      pop\n      pop\n      jump\t// out\n        /* \"#utility.yul\":7964:8413   */\n    tag_24:\n        /* \"#utility.yul\":8145:8149   */\n      0x00\n        /* \"#utility.yul\":8183:8185   */\n      0x20\n        /* \"#utility.yul\":8172:8181   */\n      dup3\n        /* \"#utility.yul\":8168:8186   */\n      add\n        /* \"#utility.yul\":8160:8186   */\n      swap1\n      pop\n        /* \"#utility.yul\":8232:8241   */\n      dup2\n        /* \"#utility.yul\":8226:8230   */\n      dup2\n        /* \"#utility.yul\":8222:8242   */\n      sub\n        /* \"#utility.yul\":8218:8219   */\n      0x00\n        /* \"#utility.yul\":8207:8216   */\n      dup4\n        /* \"#utility.yul\":8203:8220   */\n      add\n        /* \"#utility.yul\":8196:8243   */\n      mstore\n        /* \"#utility.yul\":8260:8406   */\n      tag_227\n        /* \"#utility.yul\":8401:8405   */\n      dup2\n        /* \"#utility.yul\":8392:8398   */\n      dup5\n        /* \"#utility.yul\":8260:8406   */\n      tag_133\n      jump\t// in\n    tag_227:\n        /* \"#utility.yul\":8252:8406   */\n      swap1\n      pop\n        /* \"#utility.yul\":7964:8413   */\n      swap3\n      swap2\n      pop\n      pop\n      jump\t// out\n        /* \"#utility.yul\":8419:9438   */\n    tag_27:\n        /* \"#utility.yul\":8520:8526   */\n      0x00\n        /* \"#utility.yul\":8528:8534   */\n      dup1\n        /* \"#utility.yul\":8536:8542   */\n      0x00\n        /* \"#utility.yul\":8544:8550   */\n      dup1\n        /* \"#utility.yul\":8552:8558   */\n      0x00\n        /* \"#utility.yul\":8601:8603   */\n      0x60\n        /* \"#utility.yul\":8589:8598   */\n      dup7\n        /* \"#utility.yul\":8580:8587   */\n      dup9\n        /* \"#utility.yul\":8576:8599   */\n      sub\n        /* \"#utility.yul\":8572:8604   */\n      slt\n        /* \"#utility.yul\":8569:8688   */\n      iszero\n      tag_229\n      jumpi\n        /* \"#utility.yul\":8607:8686   */\n      tag_230\n      tag_111\n      jump\t// in\n    tag_230:\n        /* \"#utility.yul\":8569:8688   */\n    tag_229:\n        /* \"#utility.yul\":8727:8728   */\n      0x00\n        /* \"#utility.yul\":8752:8805   */\n      tag_231\n        /* \"#utility.yul\":8797:8804   */\n      dup9\n        /* \"#utility.yul\":8788:8794   */\n      dup3\n        /* \"#utility.yul\":8777:8786   */\n      dup10\n        /* \"#utility.yul\":8773:8795   */\n      add\n        /* \"#utility.yul\":8752:8805   */\n      tag_119\n      jump\t// in\n    tag_231:\n        /* \"#utility.yul\":8742:8805   */\n      swap6\n      pop\n        /* \"#utility.yul\":8698:8815   */\n      pop\n        /* \"#utility.yul\":8882:8884   */\n      0x20\n        /* \"#utility.yul\":8871:8880   */\n      dup7\n        /* \"#utility.yul\":8867:8885   */\n      add\n        /* \"#utility.yul\":8854:8886   */\n      calldataload\n        /* \"#utility.yul\":8913:8931   */\n      0xffffffffffffffff\n        /* \"#utility.yul\":8905:8911   */\n      dup2\n        /* \"#utility.yul\":8902:8932   */\n      gt\n        /* \"#utility.yul\":8899:9016   */\n      iszero\n      tag_232\n      jumpi\n        /* \"#utility.yul\":8935:9014   */\n      tag_233\n      tag_112\n      jump\t// in\n    tag_233:\n        /* \"#utility.yul\":8899:9016   */\n    tag_232:\n        /* \"#utility.yul\":9048:9113   */\n      tag_234\n        /* \"#utility.yul\":9105:9112   */\n      dup9\n        /* \"#utility.yul\":9096:9102   */\n      dup3\n        /* \"#utility.yul\":9085:9094   */\n      dup10\n        /* \"#utility.yul\":9081:9103   */\n      add\n        /* \"#utility.yul\":9048:9113   */\n      tag_116\n      jump\t// in\n    tag_234:\n        /* \"#utility.yul\":9030:9113   */\n      swap5\n      pop\n      swap5\n      pop\n        /* \"#utility.yul\":8825:9123   */\n      pop\n        /* \"#utility.yul\":9190:9192   */\n      0x40\n        /* \"#utility.yul\":9179:9188   */\n      dup7\n        /* \"#utility.yul\":9175:9193   */\n      add\n        /* \"#utility.yul\":9162:9194   */\n      calldataload\n        /* \"#utility.yul\":9221:9239   */\n      0xffffffffffffffff\n        /* \"#utility.yul\":9213:9219   */\n      dup2\n        /* \"#utility.yul\":9210:9240   */\n      gt\n        /* \"#utility.yul\":9207:9324   */\n      iszero\n      tag_235\n      jumpi\n        /* \"#utility.yul\":9243:9322   */\n      tag_236\n      tag_112\n      jump\t// in\n    tag_236:\n        /* \"#utility.yul\":9207:9324   */\n    tag_235:\n        /* \"#utility.yul\":9356:9421   */\n      tag_237\n        /* \"#utility.yul\":9413:9420   */\n      dup9\n        /* \"#utility.yul\":9404:9410   */\n      dup3\n        /* \"#utility.yul\":9393:9402   */\n      dup10\n        /* \"#utility.yul\":9389:9411   */\n      add\n        /* \"#utility.yul\":9356:9421   */\n      tag_116\n      jump\t// in\n    tag_237:\n        /* \"#utility.yul\":9338:9421   */\n      swap3\n      pop\n      swap3\n      pop\n        /* \"#utility.yul\":9133:9431   */\n      pop\n        /* \"#utility.yul\":8419:9438   */\n      swap3\n      swap6\n      pop\n      swap3\n      swap6\n      swap1\n      swap4\n      pop\n      jump\t// out\n        /* \"#utility.yul\":9444:9624   */\n    tag_72:\n        /* \"#utility.yul\":9492:9569   */\n      0x4e487b7100000000000000000000000000000000000000000000000000000000\n        /* \"#utility.yul\":9489:9490   */\n      0x00\n        /* \"#utility.yul\":9482:9570   */\n      mstore\n        /* \"#utility.yul\":9589:9593   */\n      0x41\n        /* \"#utility.yul\":9586:9587   */\n      0x04\n        /* \"#utility.yul\":9579:9594   */\n      mstore\n        /* \"#utility.yul\":9613:9617   */\n      0x24\n        /* \"#utility.yul\":9610:9611   */\n      0x00\n        /* \"#utility.yul\":9603:9618   */\n      revert\n        /* \"#utility.yul\":9630:9810   */\n    tag_134:\n        /* \"#utility.yul\":9678:9755   */\n      0x4e487b7100000000000000000000000000000000000000000000000000000000\n        /* \"#utility.yul\":9675:9676   */\n      0x00\n        /* \"#utility.yul\":9668:9756   */\n      mstore\n        /* \"#utility.yul\":9775:9779   */\n      0x22\n        /* \"#utility.yul\":9772:9773   */\n      0x04\n        /* \"#utility.yul\":9765:9780   */\n      mstore\n        /* \"#utility.yul\":9799:9803   */\n      0x24\n        /* \"#utility.yul\":9796:9797   */\n      0x00\n        /* \"#utility.yul\":9789:9804   */\n      revert\n        /* \"#utility.yul\":9816:10136   */\n    tag_48:\n        /* \"#utility.yul\":9860:9866   */\n      0x00\n        /* \"#utility.yul\":9897:9898   */\n      0x02\n        /* \"#utility.yul\":9891:9895   */\n      dup3\n        /* \"#utility.yul\":9887:9899   */\n      div\n        /* \"#utility.yul\":9877:9899   */\n      swap1\n      pop\n        /* \"#utility.yul\":9944:9945   */\n      0x01\n        /* \"#utility.yul\":9938:9942   */\n      dup3\n        /* \"#utility.yul\":9934:9946   */\n      and\n        /* \"#utility.yul\":9965:9983   */\n      dup1\n        /* \"#utility.yul\":9955:10036   */\n      tag_241\n      jumpi\n        /* \"#utility.yul\":10021:10025   */\n      0x7f\n        /* \"#utility.yul\":10013:10019   */\n      dup3\n        /* \"#utility.yul\":10009:10026   */\n      and\n        /* \"#utility.yul\":9999:10026   */\n      swap2\n      pop\n        /* \"#utility.yul\":9955:10036   */\n    tag_241:\n        /* \"#utility.yul\":10083:10085   */\n      0x20\n        /* \"#utility.yul\":10075:10081   */\n      dup3\n        /* \"#utility.yul\":10072:10086   */\n      lt\n        /* \"#utility.yul\":10052:10070   */\n      dup2\n        /* \"#utility.yul\":10049:10087   */\n      sub\n        /* \"#utility.yul\":10046:10130   */\n      tag_242\n      jumpi\n        /* \"#utility.yul\":10102:10120   */\n      tag_243\n      tag_134\n      jump\t// in\n    tag_243:\n        /* \"#utility.yul\":10046:10130   */\n    tag_242:\n        /* \"#utility.yul\":9867:10136   */\n      pop\n        /* \"#utility.yul\":9816:10136   */\n      swap2\n      swap1\n      pop\n      jump\t// out\n        /* \"#utility.yul\":10142:10283   */\n    tag_135:\n        /* \"#utility.yul\":10191:10195   */\n      0x00\n        /* \"#utility.yul\":10214:10217   */\n      dup2\n        /* \"#utility.yul\":10206:10217   */\n      swap1\n      pop\n        /* \"#utility.yul\":10237:10240   */\n      dup2\n        /* \"#utility.yul\":10234:10235   */\n      0x00\n        /* \"#utility.yul\":10227:10241   */\n      mstore\n        /* \"#utility.yul\":10271:10275   */\n      0x20\n        /* \"#utility.yul\":10268:10269   */\n      0x00\n        /* \"#utility.yul\":10258:10276   */\n      keccak256\n        /* \"#utility.yul\":10250:10276   */\n      swap1\n      pop\n        /* \"#utility.yul\":10142:10283   */\n      swap2\n      swap1\n      pop\n      jump\t// out\n        /* \"#utility.yul\":10289:10382   */\n    tag_136:\n        /* \"#utility.yul\":10326:10332   */\n      0x00\n        /* \"#utility.yul\":10373:10375   */\n      0x20\n        /* \"#utility.yul\":10368:10370   */\n      0x1f\n        /* \"#utility.yul\":10361:10366   */\n      dup4\n        /* \"#utility.yul\":10357:10371   */\n      add\n        /* \"#utility.yul\":10353:10376   */\n      div\n        /* \"#utility.yul\":10343:10376   */\n      swap1\n      pop\n        /* \"#utility.yul\":10289:10382   */\n      swap2\n      swap1\n      pop\n      jump\t// out\n        /* \"#utility.yul\":10388:10495   */\n    tag_137:\n        /* \"#utility.yul\":10432:10440   */\n      0x00\n        /* \"#utility.yul\":10482:10487   */\n      dup3\n        /* \"#utility.yul\":10476:10480   */\n      dup3\n        /* \"#utility.yul\":10472:10488   */\n      shl\n        /* \"#utility.yul\":10451:10488   */\n      swap1\n      pop\n        /* \"#utility.yul\":10388:10495   */\n      swap3\n      swap2\n      pop\n      pop\n      jump\t// out\n        /* \"#utility.yul\":10501:10894   */\n    tag_138:\n        /* \"#utility.yul\":10570:10576   */\n      0x00\n        /* \"#utility.yul\":10620:10621   */\n      0x08\n        /* \"#utility.yul\":10608:10618   */\n      dup4\n        /* \"#utility.yul\":10604:10622   */\n      mul\n        /* \"#utility.yul\":10643:10740   */\n      tag_248\n        /* \"#utility.yul\":10673:10739   */\n      0xffffffffffffffffffffffffffffffffffffffffffffffffffffffffffffffff\n        /* \"#utility.yul\":10662:10671   */\n      dup3\n        /* \"#utility.yul\":10643:10740   */\n      tag_137\n      jump\t// in\n    tag_248:\n        /* \"#utility.yul\":10761:10800   */\n      tag_249\n        /* \"#utility.yul\":10791:10799   */\n      dup7\n        /* \"#utility.yul\":10780:10789   */\n      dup4\n        /* \"#utility.yul\":10761:10800   */\n      tag_137\n      jump\t// in\n    tag_249:\n        /* \"#utility.yul\":10749:10800   */\n      swap6\n      pop\n        /* \"#utility.yul\":10833:10837   */\n      dup1\n        /* \"#utility.yul\":10829:10838   */\n      not\n        /* \"#utility.yul\":10822:10827   */\n      dup5\n        /* \"#utility.yul\":10818:10839   */\n      and\n        /* \"#utility.yul\":10809:10839   */\n      swap4\n      pop\n        /* \"#utility.yul\":10882:10886   */\n      dup1\n        /* \"#utility.yul\":10872:10880   */\n      dup7\n        /* \"#utility.yul\":10868:10887   */\n      and\n        /* \"#utility.yul\":10861:10866   */\n      dup5\n        /* \"#utility.yul\":10858:10888   */\n      or\n        /* \"#utility.yul\":10848:10888   */\n      swap3\n      pop\n        /* \"#utility.yul\":10577:10894   */\n      pop\n      pop\n        /* \"#utility.yul\":10501:10894   */\n      swap4\n      swap3\n      pop\n      pop\n      pop\n      jump\t// out\n        /* \"#utility.yul\":10900:10960   */\n    tag_139:\n        /* \"#utility.yul\":10928:10931   */\n      0x00\n        /* \"#utility.yul\":10949:10954   */\n      dup2\n        /* \"#utility.yul\":10942:10954   */\n      swap1\n      pop\n        /* \"#utility.yul\":10900:10960   */\n      swap2\n      swap1\n      pop\n      jump\t// out\n        /* \"#utility.yul\":10966:11108   */\n    tag_140:\n        /* \"#utility.yul\":11016:11025   */\n      0x00\n        /* \"#utility.yul\":11049:11102   */\n      tag_252\n        /* \"#utility.yul\":11067:11101   */\n      tag_253\n        /* \"#utility.yul\":11076:11100   */\n      tag_254\n        /* \"#utility.yul\":11094:11099   */\n      dup5\n        /* \"#utility.yul\":11076:11100   */\n      tag_117\n      jump\t// in\n    tag_254:\n        /* \"#utility.yul\":11067:11101   */\n      tag_139\n      jump\t// in\n    tag_253:\n        /* \"#utility.yul\":11049:11102   */\n      tag_117\n      jump\t// in\n    tag_252:\n        /* \"#utility.yul\":11036:11102   */\n      swap1\n      pop\n        /* \"#utility.yul\":10966:11108   */\n      swap2\n      swap1\n      pop\n      jump\t// out\n        /* \"#utility.yul\":11114:11189   */\n    tag_141:\n        /* \"#utility.yul\":11157:11160   */\n      0x00\n        /* \"#utility.yul\":11178:11183   */\n      dup2\n        /* \"#utility.yul\":11171:11183   */\n      swap1\n      pop\n        /* \"#utility.yul\":11114:11189   */\n      swap2\n      swap1\n      pop\n      jump\t// out\n        /* \"#utility.yul\":11195:11464   */\n    tag_142:\n        /* \"#utility.yul\":11305:11344   */\n      tag_257\n        /* \"#utility.yul\":11336:11343   */\n      dup4\n        /* \"#utility.yul\":11305:11344   */\n      tag_140\n      jump\t// in\n    tag_257:\n        /* \"#utility.yul\":11366:11457   */\n      tag_258\n        /* \"#utility.yul\":11415:11456   */\n      tag_259\n        /* \"#utility.yul\":11439:11455   */\n      dup3\n        /* \"#utility.yul\":11415:11456   */\n      tag_141\n      jump\t// in\n    tag_259:\n        /* \"#utility.yul\":11407:11413   */\n      dup5\n        /* \"#utility.yul\":11400:11404   */\n      dup5\n        /* \"#utility.yul\":11394:11405   */\n      sload\n        /* \"#utility.yul\":11366:11457   */\n      tag_138\n      jump\t// in\n    tag_258:\n        /* \"#utility.yul\":11360:11364   */\n      dup3\n        /* \"#utility.yul\":11353:11458   */\n      sstore\n        /* \"#utility.yul\":11271:11464   */\n      pop\n        /* \"#utility.yul\":11195:11464   */\n      pop\n      pop\n      pop\n      jump\t// out\n        /* \"#utility.yul\":11470:11543   */\n    tag_143:\n        /* \"#utility.yul\":11515:11518   */\n      0x00\n        /* \"#utility.yul\":11470:11543   */\n      swap1\n      jump\t// out\n        /* \"#utility.yul\":11549:11738   */\n    tag_144:\n        /* \"#utility.yul\":11626:11658   */\n      tag_262\n      tag_143\n      jump\t// in\n    tag_262:\n        /* \"#utility.yul\":11667:11732   */\n      tag_263\n        /* \"#utility.yul\":11725:11731   */\n      dup2\n        /* \"#utility.yul\":11717:11723   */\n      dup5\n        /* \"#utility.yul\":11711:11715   */\n      dup5\n        /* \"#utility.yul\":11667:11732   */\n      tag_142\n      jump\t// in\n    tag_263:\n        /* \"#utility.yul\":11602:11738   */\n      pop\n        /* \"#utility.yul\":11549:11738   */\n      pop\n      pop\n      jump\t// out\n        /* \"#utility.yul\":11744:11930   */\n    tag_145:\n        /* \"#utility.yul\":11804:11924   */\n    tag_265:\n        /* \"#utility.yul\":11821:11824   */\n      dup2\n        /* \"#utility.yul\":11814:11819   */\n      dup2\n        /* \"#utility.yul\":11811:11825   */\n      lt\n        /* \"#utility.yul\":11804:11924   */\n      iszero\n      tag_267\n      jumpi\n        /* \"#utility.yul\":11875:11914   */\n      tag_268\n        /* \"#utility.yul\":11912:11913   */\n      0x00\n        /* \"#utility.yul\":11905:11910   */\n      dup3\n        /* \"#utility.yul\":11875:11914   */\n      tag_144\n      jump\t// in\n    tag_268:\n        /* \"#utility.yul\":11848:11849   */\n      0x01\n        /* \"#utility.yul\":11841:11846   */\n      dup2\n        /* \"#utility.yul\":11837:11850   */\n      add\n        /* \"#utility.yul\":11828:11850   */\n      swap1\n      pop\n        /* \"#utility.yul\":11804:11924   */\n      jump(tag_265)\n    tag_267:\n        /* \"#utility.yul\":11744:11930   */\n      pop\n      pop\n      jump\t// out\n        /* \"#utility.yul\":11936:12479   */\n    tag_146:\n        /* \"#utility.yul\":12037:12039   */\n      0x1f\n        /* \"#utility.yul\":12032:12035   */\n      dup3\n        /* \"#utility.yul\":12029:12040   */\n      gt\n        /* \"#utility.yul\":12026:12472   */\n      iszero\n      tag_270\n      jumpi\n        /* \"#utility.yul\":12071:12109   */\n      tag_271\n        /* \"#utility.yul\":12103:12108   */\n      dup2\n        /* \"#utility.yul\":12071:12109   */\n      tag_135\n      jump\t// in\n    tag_271:\n        /* \"#utility.yul\":12155:12184   */\n      tag_272\n        /* \"#utility.yul\":12173:12183   */\n      dup5\n        /* \"#utility.yul\":12155:12184   */\n      tag_136\n      jump\t// in\n    tag_272:\n        /* \"#utility.yul\":12145:12153   */\n      dup2\n        /* \"#utility.yul\":12141:12185   */\n      add\n        /* \"#utility.yul\":12338:12340   */\n      0x20\n        /* \"#utility.yul\":12326:12336   */\n      dup6\n        /* \"#utility.yul\":12323:12341   */\n      lt\n        /* \"#utility.yul\":12320:12369   */\n      iszero\n      tag_273\n      jumpi\n        /* \"#utility.yul\":12359:12367   */\n      dup2\n        /* \"#utility.yul\":12344:12367   */\n      swap1\n      pop\n        /* \"#utility.yul\":12320:12369   */\n    tag_273:\n        /* \"#utility.yul\":12382:12462   */\n      tag_274\n        /* \"#utility.yul\":12438:12460   */\n      tag_275\n        /* \"#utility.yul\":12456:12459   */\n      dup6\n        /* \"#utility.yul\":12438:12460   */\n      tag_136\n      jump\t// in\n    tag_275:\n        /* \"#utility.yul\":12428:12436   */\n      dup4\n        /* \"#utility.yul\":12424:12461   */\n      add\n        /* \"#utility.yul\":12411:12422   */\n      dup3\n        /* \"#utility.yul\":12382:12462   */\n      tag_145\n      jump\t// in\n    tag_274:\n        /* \"#utility.yul\":12041:12472   */\n      pop\n      pop\n        /* \"#utility.yul\":12026:12472   */\n    tag_270:\n        /* \"#utility.yul\":11936:12479   */\n      pop\n      pop\n      pop\n      jump\t// out\n        /* \"#utility.yul\":12485:12602   */\n    tag_147:\n        /* \"#utility.yul\":12539:12547   */\n      0x00\n        /* \"#utility.yul\":12589:12594   */\n      dup3\n        /* \"#utility.yul\":12583:12587   */\n      dup3\n        /* \"#utility.yul\":12579:12595   */\n      shr\n        /* \"#utility.yul\":12558:12595   */\n      swap1\n      pop\n        /* \"#utility.yul\":12485:12602   */\n      swap3\n      swap2\n      pop\n      pop\n      jump\t// out\n        /* \"#utility.yul\":12608:12777   */\n    tag_148:\n        /* \"#utility.yul\":12652:12658   */\n      0x00\n        /* \"#utility.yul\":12685:12736   */\n      tag_278\n        /* \"#utility.yul\":12733:12734   */\n      0x00\n        /* \"#utility.yul\":12729:12735   */\n      not\n        /* \"#utility.yul\":12721:12726   */\n      dup5\n        /* \"#utility.yul\":12718:12719   */\n      0x08\n        /* \"#utility.yul\":12714:12727   */\n      mul\n        /* \"#utility.yul\":12685:12736   */\n      tag_147\n      jump\t// in\n    tag_278:\n        /* \"#utility.yul\":12681:12737   */\n      not\n        /* \"#utility.yul\":12766:12770   */\n      dup1\n        /* \"#utility.yul\":12760:12764   */\n      dup4\n        /* \"#utility.yul\":12756:12771   */\n      and\n        /* \"#utility.yul\":12746:12771   */\n      swap2\n      pop\n        /* \"#utility.yul\":12659:12777   */\n      pop\n        /* \"#utility.yul\":12608:12777   */\n      swap3\n      swap2\n      pop\n      pop\n      jump\t// out\n        /* \"#utility.yul\":12782:13077   */\n    tag_149:\n        /* \"#utility.yul\":12858:12862   */\n      0x00\n        /* \"#utility.yul\":13004:13033   */\n      tag_280\n        /* \"#utility.yul\":13029:13032   */\n      dup4\n        /* \"#utility.yul\":13023:13027   */\n      dup4\n        /* \"#utility.yul\":13004:13033   */\n      tag_148\n      jump\t// in\n    tag_280:\n        /* \"#utility.yul\":12996:13033   */\n      swap2\n      pop\n        /* \"#utility.yul\":13066:13069   */\n      dup3\n        /* \"#utility.yul\":13063:13064   */\n      0x02\n        /* \"#utility.yul\":13059:13070   */\n      mul\n        /* \"#utility.yul\":13053:13057   */\n      dup3\n        /* \"#utility.yul\":13050:13071   */\n      or\n        /* \"#utility.yul\":13042:13071   */\n      swap1\n      pop\n        /* \"#utility.yul\":12782:13077   */\n      swap3\n      swap2\n      pop\n      pop\n      jump\t// out\n        /* \"#utility.yul\":13082:14477   */\n    tag_31:\n        /* \"#utility.yul\":13199:13236   */\n      tag_282\n        /* \"#utility.yul\":13232:13235   */\n      dup3\n        /* \"#utility.yul\":13199:13236   */\n      tag_121\n      jump\t// in\n    tag_282:\n        /* \"#utility.yul\":13301:13319   */\n      0xffffffffffffffff\n        /* \"#utility.yul\":13293:13299   */\n      dup2\n        /* \"#utility.yul\":13290:13320   */\n      gt\n        /* \"#utility.yul\":13287:13343   */\n      iszero\n      tag_283\n      jumpi\n        /* \"#utility.yul\":13323:13341   */\n      tag_284\n      tag_72\n      jump\t// in\n    tag_284:\n        /* \"#utility.yul\":13287:13343   */\n    tag_283:\n        /* \"#utility.yul\":13367:13405   */\n      tag_285\n        /* \"#utility.yul\":13399:13403   */\n      dup3\n        /* \"#utility.yul\":13393:13404   */\n      sload\n        /* \"#utility.yul\":13367:13405   */\n      tag_48\n      jump\t// in\n    tag_285:\n        /* \"#utility.yul\":13452:13519   */\n      tag_286\n        /* \"#utility.yul\":13512:13518   */\n      dup3\n        /* \"#utility.yul\":13504:13510   */\n      dup3\n        /* \"#utility.yul\":13498:13502   */\n      dup6\n        /* \"#utility.yul\":13452:13519   */\n      tag_146\n      jump\t// in\n    tag_286:\n        /* \"#utility.yul\":13546:13547   */\n      0x00\n        /* \"#utility.yul\":13570:13574   */\n      0x20\n        /* \"#utility.yul\":13557:13574   */\n      swap1\n      pop\n        /* \"#utility.yul\":13602:13604   */\n      0x1f\n        /* \"#utility.yul\":13594:13600   */\n      dup4\n        /* \"#utility.yul\":13591:13605   */\n      gt\n        /* \"#utility.yul\":13619:13620   */\n      0x01\n        /* \"#utility.yul\":13614:14232   */\n      dup2\n      eq\n      tag_288\n      jumpi\n        /* \"#utility.yul\":14276:14277   */\n      0x00\n        /* \"#utility.yul\":14293:14299   */\n      dup5\n        /* \"#utility.yul\":14290:14367   */\n      iszero\n      tag_289\n      jumpi\n        /* \"#utility.yul\":14342:14351   */\n      dup3\n        /* \"#utility.yul\":14337:14340   */\n      dup8\n        /* \"#utility.yul\":14333:14352   */\n      add\n        /* \"#utility.yul\":14327:14353   */\n      mload\n        /* \"#utility.yul\":14318:14353   */\n      swap1\n      pop\n        /* \"#utility.yul\":14290:14367   */\n    tag_289:\n        /* \"#utility.yul\":14393:14460   */\n      tag_290\n        /* \"#utility.yul\":14453:14459   */\n      dup6\n        /* \"#utility.yul\":14446:14451   */\n      dup3\n        /* \"#utility.yul\":14393:14460   */\n      tag_149\n      jump\t// in\n    tag_290:\n        /* \"#utility.yul\":14387:14391   */\n      dup7\n        /* \"#utility.yul\":14380:14461   */\n      sstore\n        /* \"#utility.yul\":14249:14471   */\n      pop\n        /* \"#utility.yul\":13584:14471   */\n      jump(tag_287)\n        /* \"#utility.yul\":13614:14232   */\n    tag_288:\n        /* \"#utility.yul\":13666:13670   */\n      0x1f\n        /* \"#utility.yul\":13662:13671   */\n      not\n        /* \"#utility.yul\":13654:13660   */\n      dup5\n        /* \"#utility.yul\":13650:13672   */\n      and\n        /* \"#utility.yul\":13700:13737   */\n      tag_291\n        /* \"#utility.yul\":13732:13736   */\n      dup7\n        /* \"#utility.yul\":13700:13737   */\n      tag_135\n      jump\t// in\n    tag_291:\n        /* \"#utility.yul\":13759:13760   */\n      0x00\n        /* \"#utility.yul\":13773:13981   */\n    tag_292:\n        /* \"#utility.yul\":13787:13794   */\n      dup3\n        /* \"#utility.yul\":13784:13785   */\n      dup2\n        /* \"#utility.yul\":13781:13795   */\n      lt\n        /* \"#utility.yul\":13773:13981   */\n      iszero\n      tag_294\n      jumpi\n        /* \"#utility.yul\":13866:13875   */\n      dup5\n        /* \"#utility.yul\":13861:13864   */\n      dup10\n        /* \"#utility.yul\":13857:13876   */\n      add\n        /* \"#utility.yul\":13851:13877   */\n      mload\n        /* \"#utility.yul\":13843:13849   */\n      dup3\n        /* \"#utility.yul\":13836:13878   */\n      sstore\n        /* \"#utility.yul\":13917:13918   */\n      0x01\n        /* \"#utility.yul\":13909:13915   */\n      dup3\n        /* \"#utility.yul\":13905:13919   */\n      add\n        /* \"#utility.yul\":13895:13919   */\n      swap2\n      pop\n        /* \"#utility.yul\":13964:13966   */\n      0x20\n        /* \"#utility.yul\":13953:13962   */\n      dup6\n        /* \"#utility.yul\":13949:13967   */\n      add\n        /* \"#utility.yul\":13936:13967   */\n      swap5\n      pop\n        /* \"#utility.yul\":13810:13814   */\n      0x20\n        /* \"#utility.yul\":13807:13808   */\n      dup2\n        /* \"#utility.yul\":13803:13815   */\n      add\n        /* \"#utility.yul\":13798:13815   */\n      swap1\n      pop\n        /* \"#utility.yul\":13773:13981   */\n      jump(tag_292)\n    tag_294:\n        /* \"#utility.yul\":14009:14015   */\n      dup7\n        /* \"#utility.yul\":14000:14007   */\n      dup4\n        /* \"#utility.yul\":13997:14016   */\n      lt\n        /* \"#utility.yul\":13994:14173   */\n      iszero\n      tag_295\n      jumpi\n        /* \"#utility.yul\":14067:14076   */\n      dup5\n        /* \"#utility.yul\":14062:14065   */\n      dup10\n        /* \"#utility.yul\":14058:14077   */\n      add\n        /* \"#utility.yul\":14052:14078   */\n      mload\n        /* \"#utility.yul\":14110:14158   */\n      tag_296\n        /* \"#utility.yul\":14152:14156   */\n      0x1f\n        /* \"#utility.yul\":14144:14150   */\n      dup10\n        /* \"#utility.yul\":14140:14157   */\n      and\n        /* \"#utility.yul\":14129:14138   */\n      dup3\n        /* \"#utility.yul\":14110:14158   */\n      tag_148\n      jump\t// in\n    tag_296:\n        /* \"#utility.yul\":14102:14108   */\n      dup4\n        /* \"#utility.yul\":14095:14159   */\n      sstore\n        /* \"#utility.yul\":14017:14173   */\n      pop\n        /* \"#utility.yul\":13994:14173   */\n    tag_295:\n        /* \"#utility.yul\":14219:14220   */\n      0x01\n        /* \"#utility.yul\":14215:14216   */\n      0x02\n        /* \"#utility.yul\":14207:14213   */\n      dup9\n        /* \"#utility.yul\":14203:14217   */\n      mul\n        /* \"#utility.yul\":14199:14221   */\n      add\n        /* \"#utility.yul\":14193:14197   */\n      dup9\n        /* \"#utility.yul\":14186:14222   */\n      sstore\n        /* \"#utility.yul\":13621:14232   */\n      pop\n      pop\n      pop\n        /* \"#utility.yul\":13584:14471   */\n    tag_287:\n      pop\n        /* \"#utility.yul\":13174:14477   */\n      pop\n      pop\n      pop\n        /* \"#utility.yul\":13082:14477   */\n      pop\n      pop\n      jump\t// out\n        /* \"#utility.yul\":14483:14663   */\n    tag_150:\n        /* \"#utility.yul\":14531:14608   */\n      0x4e487b7100000000000000000000000000000000000000000000000000000000\n        /* \"#utility.yul\":14528:14529   */\n      0x00\n        /* \"#utility.yul\":14521:14609   */\n      mstore\n        /* \"#utility.yul\":14628:14632   */\n      0x11\n        /* \"#utility.yul\":14625:14626   */\n      0x04\n        /* \"#utility.yul\":14618:14633   */\n      mstore\n        /* \"#utility.yul\":14652:14656   */\n      0x24\n        /* \"#utility.yul\":14649:14650   */\n      0x00\n        /* \"#utility.yul\":14642:14657   */\n      revert\n        /* \"#utility.yul\":14669:14902   */\n    tag_34:\n        /* \"#utility.yul\":14708:14711   */\n      0x00\n        /* \"#utility.yul\":14731:14755   */\n      tag_299\n        /* \"#utility.yul\":14749:14754   */\n      dup3\n        /* \"#utility.yul\":14731:14755   */\n      tag_117\n      jump\t// in\n    tag_299:\n        /* \"#utility.yul\":14722:14755   */\n      swap2\n      pop\n        /* \"#utility.yul\":14777:14843   */\n      0xffffffffffffffffffffffffffffffffffffffffffffffffffffffffffffffff\n        /* \"#utility.yul\":14770:14775   */\n      dup3\n        /* \"#utility.yul\":14767:14844   */\n      sub\n        /* \"#utility.yul\":14764:14867   */\n      tag_300\n      jumpi\n        /* \"#utility.yul\":14847:14865   */\n      tag_301\n      tag_150\n      jump\t// in\n    tag_301:\n        /* \"#utility.yul\":14764:14867   */\n    tag_300:\n        /* \"#utility.yul\":14894:14895   */\n      0x01\n        /* \"#utility.yul\":14887:14892   */\n      dup3\n        /* \"#utility.yul\":14883:14896   */\n      add\n        /* \"#utility.yul\":14876:14896   */\n      swap1\n      pop\n        /* \"#utility.yul\":14669:14902   */\n      swap2\n      swap1\n      pop\n      jump\t// out\n        /* \"#utility.yul\":14908:15102   */\n    tag_36:\n        /* \"#utility.yul\":14948:14952   */\n      0x00\n        /* \"#utility.yul\":14968:14988   */\n      tag_303\n        /* \"#utility.yul\":14986:14987   */\n      dup3\n        /* \"#utility.yul\":14968:14988   */\n      tag_117\n      jump\t// in\n    tag_303:\n        /* \"#utility.yul\":14963:14988   */\n      swap2\n      pop\n        /* \"#utility.yul\":15002:15022   */\n      tag_304\n        /* \"#utility.yul\":15020:15021   */\n      dup4\n        /* \"#utility.yul\":15002:15022   */\n      tag_117\n      jump\t// in\n    tag_304:\n        /* \"#utility.yul\":14997:15022   */\n      swap3\n      pop\n        /* \"#utility.yul\":15046:15047   */\n      dup3\n        /* \"#utility.yul\":15043:15044   */\n      dup3\n        /* \"#utility.yul\":15039:15048   */\n      sub\n        /* \"#utility.yul\":15031:15048   */\n      swap1\n      pop\n        /* \"#utility.yul\":15070:15071   */\n      dup2\n        /* \"#utility.yul\":15064:15068   */\n      dup2\n        /* \"#utility.yul\":15061:15072   */\n      gt\n        /* \"#utility.yul\":15058:15095   */\n      iszero\n      tag_305\n      jumpi\n        /* \"#utility.yul\":15075:15093   */\n      tag_306\n      tag_150\n      jump\t// in\n    tag_306:\n        /* \"#utility.yul\":15058:15095   */\n    tag_305:\n        /* \"#utility.yul\":14908:15102   */\n      swap3\n      swap2\n      pop\n      pop\n      jump\t// out\n        /* \"#utility.yul\":15108:15226   */\n    tag_151:\n        /* \"#utility.yul\":15195:15219   */\n      tag_308\n        /* \"#utility.yul\":15213:15218   */\n      dup2\n        /* \"#utility.yul\":15195:15219   */\n      tag_117\n      jump\t// in\n    tag_308:\n        /* \"#utility.yul\":15190:15193   */\n      dup3\n        /* \"#utility.yul\":15183:15220   */\n      mstore\n        /* \"#utility.yul\":15108:15226   */\n      pop\n      pop\n      jump\t// out\n        /* \"#utility.yul\":15232:15401   */\n    tag_152:\n        /* \"#utility.yul\":15316:15327   */\n      0x00\n        /* \"#utility.yul\":15350:15356   */\n      dup3\n        /* \"#utility.yul\":15345:15348   */\n      dup3\n        /* \"#utility.yul\":15338:15357   */\n      mstore\n        /* \"#utility.yul\":15390:15394   */\n      0x20\n        /* \"#utility.yul\":15385:15388   */\n      dup3\n        /* \"#utility.yul\":15381:15395   */\n      add\n        /* \"#utility.yul\":15366:15395   */\n      swap1\n      pop\n        /* \"#utility.yul\":15232:15401   */\n      swap3\n      swap2\n      pop\n      pop\n      jump\t// out\n        /* \"#utility.yul\":15407:15555   */\n    tag_153:\n        /* \"#utility.yul\":15505:15511   */\n      dup3\n        /* \"#utility.yul\":15500:15503   */\n      dup2\n        /* \"#utility.yul\":15495:15498   */\n      dup4\n        /* \"#utility.yul\":15482:15512   */\n      calldatacopy\n        /* \"#utility.yul\":15546:15547   */\n      0x00\n        /* \"#utility.yul\":15537:15543   */\n      dup4\n        /* \"#utility.yul\":15532:15535   */\n      dup4\n        /* \"#utility.yul\":15528:15544   */\n      add\n        /* \"#utility.yul\":15521:15548   */\n      mstore\n        /* \"#utility.yul\":15407:15555   */\n      pop\n      pop\n      pop\n      jump\t// out\n        /* \"#utility.yul\":15585:15902   */\n    tag_154:\n        /* \"#utility.yul\":15683:15686   */\n      0x00\n        /* \"#utility.yul\":15704:15775   */\n      tag_312\n        /* \"#utility.yul\":15768:15774   */\n      dup4\n        /* \"#utility.yul\":15763:15766   */\n      dup6\n        /* \"#utility.yul\":15704:15775   */\n      tag_152\n      jump\t// in\n    tag_312:\n        /* \"#utility.yul\":15697:15775   */\n      swap4\n      pop\n        /* \"#utility.yul\":15785:15841   */\n      tag_313\n        /* \"#utility.yul\":15834:15840   */\n      dup4\n        /* \"#utility.yul\":15829:15832   */\n      dup6\n        /* \"#utility.yul\":15822:15827   */\n      dup5\n        /* \"#utility.yul\":15785:15841   */\n      tag_153\n      jump\t// in\n    tag_313:\n        /* \"#utility.yul\":15866:15895   */\n      tag_314\n        /* \"#utility.yul\":15888:15894   */\n      dup4\n        /* \"#utility.yul\":15866:15895   */\n      tag_124\n      jump\t// in\n    tag_314:\n        /* \"#utility.yul\":15861:15864   */\n      dup5\n        /* \"#utility.yul\":15857:15896   */\n      add\n        /* \"#utility.yul\":15850:15896   */\n      swap1\n      pop\n        /* \"#utility.yul\":15585:15902   */\n      swap4\n      swap3\n      pop\n      pop\n      pop\n      jump\t// out\n        /* \"#utility.yul\":15908:16351   */\n    tag_38:\n        /* \"#utility.yul\":16059:16063   */\n      0x00\n        /* \"#utility.yul\":16097:16099   */\n      0x40\n        /* \"#utility.yul\":16086:16095   */\n      dup3\n        /* \"#utility.yul\":16082:16100   */\n      add\n        /* \"#utility.yul\":16074:16100   */\n      swap1\n      pop\n        /* \"#utility.yul\":16110:16181   */\n      tag_316\n        /* \"#utility.yul\":16178:16179   */\n      0x00\n        /* \"#utility.yul\":16167:16176   */\n      dup4\n        /* \"#utility.yul\":16163:16180   */\n      add\n        /* \"#utility.yul\":16154:16160   */\n      dup7\n        /* \"#utility.yul\":16110:16181   */\n      tag_151\n      jump\t// in\n    tag_316:\n        /* \"#utility.yul\":16228:16237   */\n      dup2\n        /* \"#utility.yul\":16222:16226   */\n      dup2\n        /* \"#utility.yul\":16218:16238   */\n      sub\n        /* \"#utility.yul\":16213:16215   */\n      0x20\n        /* \"#utility.yul\":16202:16211   */\n      dup4\n        /* \"#utility.yul\":16198:16216   */\n      add\n        /* \"#utility.yul\":16191:16239   */\n      mstore\n        /* \"#utility.yul\":16256:16344   */\n      tag_317\n        /* \"#utility.yul\":16339:16343   */\n      dup2\n        /* \"#utility.yul\":16330:16336   */\n      dup5\n        /* \"#utility.yul\":16322:16328   */\n      dup7\n        /* \"#utility.yul\":16256:16344   */\n      tag_154\n      jump\t// in\n    tag_317:\n        /* \"#utility.yul\":16248:16344   */\n      swap1\n      pop\n        /* \"#utility.yul\":15908:16351   */\n      swap5\n      swap4\n      pop\n      pop\n      pop\n      pop\n      jump\t// out\n        /* \"#utility.yul\":16357:16517   */\n    tag_155:\n        /* \"#utility.yul\":16497:16509   */\n      0x496e76616c696420496400000000000000000000000000000000000000000000\n        /* \"#utility.yul\":16493:16494   */\n      0x00\n        /* \"#utility.yul\":16485:16491   */\n      dup3\n        /* \"#utility.yul\":16481:16495   */\n      add\n        /* \"#utility.yul\":16474:16510   */\n      mstore\n        /* \"#utility.yul\":16357:16517   */\n      pop\n      jump\t// out\n        /* \"#utility.yul\":16523:16889   */\n    tag_156:\n        /* \"#utility.yul\":16665:16668   */\n      0x00\n        /* \"#utility.yul\":16686:16753   */\n      tag_320\n        /* \"#utility.yul\":16750:16752   */\n      0x0a\n        /* \"#utility.yul\":16745:16748   */\n      dup4\n        /* \"#utility.yul\":16686:16753   */\n      tag_152\n      jump\t// in\n    tag_320:\n        /* \"#utility.yul\":16679:16753   */\n      swap2\n      pop\n        /* \"#utility.yul\":16762:16855   */\n      tag_321\n        /* \"#utility.yul\":16851:16854   */\n      dup3\n        /* \"#utility.yul\":16762:16855   */\n      tag_155\n      jump\t// in\n    tag_321:\n        /* \"#utility.yul\":16880:16882   */\n      0x20\n        /* \"#utility.yul\":16875:16878   */\n      dup3\n        /* \"#utility.yul\":16871:16883   */\n      add\n        /* \"#utility.yul\":16864:16883   */\n      swap1\n      pop\n        /* \"#utility.yul\":16523:16889   */\n      swap2\n      swap1\n      pop\n      jump\t// out\n        /* \"#utility.yul\":16895:17314   */\n    tag_45:\n        /* \"#utility.yul\":17061:17065   */\n      0x00\n        /* \"#utility.yul\":17099:17101   */\n      0x20\n        /* \"#utility.yul\":17088:17097   */\n      dup3\n        /* \"#utility.yul\":17084:17102   */\n      add\n        /* \"#utility.yul\":17076:17102   */\n      swap1\n      pop\n        /* \"#utility.yul\":17148:17157   */\n      dup2\n        /* \"#utility.yul\":17142:17146   */\n      dup2\n        /* \"#utility.yul\":17138:17158   */\n      sub\n        /* \"#utility.yul\":17134:17135   */\n      0x00\n        /* \"#utility.yul\":17123:17132   */\n      dup4\n        /* \"#utility.yul\":17119:17136   */\n      add\n        /* \"#utility.yul\":17112:17159   */\n      mstore\n        /* \"#utility.yul\":17176:17307   */\n      tag_323\n        /* \"#utility.yul\":17302:17306   */\n      dup2\n        /* \"#utility.yul\":17176:17307   */\n      tag_156\n      jump\t// in\n    tag_323:\n        /* \"#utility.yul\":17168:17307   */\n      swap1\n      pop\n        /* \"#utility.yul\":16895:17314   */\n      swap2\n      swap1\n      pop\n      jump\t// out\n        /* \"#utility.yul\":17320:17542   */\n    tag_67:\n        /* \"#utility.yul\":17413:17417   */\n      0x00\n        /* \"#utility.yul\":17451:17453   */\n      0x20\n        /* \"#utility.yul\":17440:17449   */\n      dup3\n        /* \"#utility.yul\":17436:17454   */\n      add\n        /* \"#utility.yul\":17428:17454   */\n      swap1\n      pop\n        /* \"#utility.yul\":17464:17535   */\n      tag_325\n        /* \"#utility.yul\":17532:17533   */\n      0x00\n        /* \"#utility.yul\":17521:17530   */\n      dup4\n        /* \"#utility.yul\":17517:17534   */\n      add\n        /* \"#utility.yul\":17508:17514   */\n      dup5\n        /* \"#utility.yul\":17464:17535   */\n      tag_151\n      jump\t// in\n    tag_325:\n        /* \"#utility.yul\":17320:17542   */\n      swap3\n      swap2\n      pop\n      pop\n      jump\t// out\n        /* \"#utility.yul\":17548:17739   */\n    tag_81:\n        /* \"#utility.yul\":17588:17591   */\n      0x00\n        /* \"#utility.yul\":17607:17627   */\n      tag_327\n        /* \"#utility.yul\":17625:17626   */\n      dup3\n        /* \"#utility.yul\":17607:17627   */\n      tag_117\n      jump\t// in\n    tag_327:\n        /* \"#utility.yul\":17602:17627   */\n      swap2\n      pop\n        /* \"#utility.yul\":17641:17661   */\n      tag_328\n        /* \"#utility.yul\":17659:17660   */\n      dup4\n        /* \"#utility.yul\":17641:17661   */\n      tag_117\n      jump\t// in\n    tag_328:\n        /* \"#utility.yul\":17636:17661   */\n      swap3\n      pop\n        /* \"#utility.yul\":17684:17685   */\n      dup3\n        /* \"#utility.yul\":17681:17682   */\n      dup3\n        /* \"#utility.yul\":17677:17686   */\n      add\n        /* \"#utility.yul\":17670:17686   */\n      swap1\n      pop\n        /* \"#utility.yul\":17705:17708   */\n      dup1\n        /* \"#utility.yul\":17702:17703   */\n      dup3\n        /* \"#utility.yul\":17699:17709   */\n      gt\n        /* \"#utility.yul\":17696:17732   */\n      iszero\n      tag_329\n      jumpi\n        /* \"#utility.yul\":17712:17730   */\n      tag_330\n      tag_150\n      jump\t// in\n    tag_330:\n        /* \"#utility.yul\":17696:17732   */\n    tag_329:\n        /* \"#utility.yul\":17548:17739   */\n      swap3\n      swap2\n      pop\n      pop\n      jump\t// out\n        /* \"#utility.yul\":17745:17925   */\n    tag_94:\n        /* \"#utility.yul\":17793:17870   */\n      0x4e487b7100000000000000000000000000000000000000000000000000000000\n        /* \"#utility.yul\":17790:17791   */\n      0x00\n        /* \"#utility.yul\":17783:17871   */\n      mstore\n        /* \"#utility.yul\":17890:17894   */\n      0x32\n        /* \"#utility.yul\":17887:17888   */\n      0x04\n        /* \"#utility.yul\":17880:17895   */\n      mstore\n        /* \"#utility.yul\":17914:17918   */\n      0x24\n        /* \"#utility.yul\":17911:17912   */\n      0x00\n        /* \"#utility.yul\":17904:17919   */\n      revert\n\n    auxdata: 0xa2646970667358221220d702818393a578be40d654acda4fb4501a72aeb60a03b2246464b9d54ee338a264736f6c634300081a0033\n}\n",
				"bytecode": {
					"linkReferences": {},
					"object": "608060405260016005553480156013575f80fd5b50335f806101000a81548173ffffffffffffffffffffffffffffffffffffffff021916908373ffffffffffffffffffffffffffffffffffffffff1602179055506111e5806100605f395ff3fe608060405234801561000f575f80fd5b5060043610610055575f3560e01c8063292a4585146100595780633b3d7e5614610075578063560f3192146100a5578063997c21a5146100c1578063c72ef41f146100df575b5f80fd5b610073600480360381019061006e9190610919565b6100fb565b005b61008f600480360381019061008a91906109ca565b61024e565b60405161009c9190610ac8565b60405180910390f35b6100bf60048036038101906100ba91906109ca565b6103f4565b005b6100c96104b8565b6040516100d69190610bf7565b60405180910390f35b6100f960048036038101906100f49190610c17565b6106bb565b005b6040518060600160405280600554815260200185858080601f0160208091040260200160405190810160405280939291908181526020018383808284375f81840152601f19601f82011690508083019250505050505050815260200183838080601f0160208091040260200160405190810160405280939291908181526020018383808284375f81840152601f19601f8201169050808301925050505050505081525060045f60055481526020019081526020015f205f820151815f015560208201518160010190816101ce9190610ecf565b5060408201518160020190816101e49190610ecf565b5090505060055f8154809291906101fa90610fcb565b91905055507f8d2940774d17f73b208e757bc4b4290cf4d29d6a7eb353d4b72e5eb87e73844d600160055461022f9190611012565b85856040516102409392919061109e565b60405180910390a150505050565b610256610838565b815f8114158015610268575060055481105b6102a7576040517f08c379a000000000000000000000000000000000000000000000000000000000815260040161029e90611118565b60405180910390fd5b60045f8481526020019081526020015f206040518060600160405290815f82015481526020016001820180546102dc90610d02565b80601f016020809104026020016040519081016040528092919081815260200182805461030890610d02565b80156103535780601f1061032a57610100808354040283529160200191610353565b820191905f5260205f20905b81548152906001019060200180831161033657829003601f168201915b5050505050815260200160028201805461036c90610d02565b80601f016020809104026020016040519081016040528092919081815260200182805461039890610d02565b80156103e35780601f106103ba576101008083540402835291602001916103e3565b820191905f5260205f20905b8154815290600101906020018083116103c657829003601f168201915b505050505081525050915050919050565b805f8114158015610406575060055481105b610445576040517f08c379a000000000000000000000000000000000000000000000000000000000815260040161043c90611118565b60405180910390fd5b60045f8381526020019081526020015f205f8082015f9055600182015f61046c9190610858565b600282015f61047b9190610858565b50507feae6ad3b4b47002b66d830fda22aeca77d9ebc4b21656b0c80880f26ffbfdf34826040516104ac9190611136565b60405180910390a15050565b60605f60016005546104ca9190611012565b67ffffffffffffffff8111156104e3576104e2610ca8565b5b60405190808252806020026020018201604052801561051c57816020015b610509610838565b8152602001906001900390816105015790505b5090505f5b60016005546105309190611012565b8110156106b35760045f600183610547919061114f565b81526020019081526020015f206040518060600160405290815f820154815260200160018201805461057890610d02565b80601f01602080910402602001604051908101604052809291908181526020018280546105a490610d02565b80156105ef5780601f106105c6576101008083540402835291602001916105ef565b820191905f5260205f20905b8154815290600101906020018083116105d257829003601f168201915b5050505050815260200160028201805461060890610d02565b80601f016020809104026020016040519081016040528092919081815260200182805461063490610d02565b801561067f5780601f106106565761010080835404028352916020019161067f565b820191905f5260205f20905b81548152906001019060200180831161066257829003601f168201915b50505050508152505082828151811061069b5761069a611182565b5b60200260200101819052508080600101915050610521565b508091505090565b845f81141580156106cd575060055481105b61070c576040517f08c379a000000000000000000000000000000000000000000000000000000000815260040161070390611118565b60405180910390fd5b604051806060016040528087815260200186868080601f0160208091040260200160405190810160405280939291908181526020018383808284375f81840152601f19601f82011690508083019250505050505050815260200184848080601f0160208091040260200160405190810160405280939291908181526020018383808284375f81840152601f19601f8201169050808301925050505050505081525060045f8881526020019081526020015f205f820151815f015560208201518160010190816107db9190610ecf565b5060408201518160020190816107f19190610ecf565b509050507f943adabf122c6ab07969fd6d8650cb507d5cbb254d4d8f7fa5abd989ea2b54d08686866040516108289392919061109e565b60405180910390a1505050505050565b60405180606001604052805f815260200160608152602001606081525090565b50805461086490610d02565b5f825580601f106108755750610892565b601f0160209004905f5260205f20908101906108919190610895565b5b50565b5b808211156108ac575f815f905550600101610896565b5090565b5f80fd5b5f80fd5b5f80fd5b5f80fd5b5f80fd5b5f8083601f8401126108d9576108d86108b8565b5b8235905067ffffffffffffffff8111156108f6576108f56108bc565b5b602083019150836001820283011115610912576109116108c0565b5b9250929050565b5f805f8060408587031215610931576109306108b0565b5b5f85013567ffffffffffffffff81111561094e5761094d6108b4565b5b61095a878288016108c4565b9450945050602085013567ffffffffffffffff81111561097d5761097c6108b4565b5b610989878288016108c4565b925092505092959194509250565b5f819050919050565b6109a981610997565b81146109b3575f80fd5b50565b5f813590506109c4816109a0565b92915050565b5f602082840312156109df576109de6108b0565b5b5f6109ec848285016109b6565b91505092915050565b6109fe81610997565b82525050565b5f81519050919050565b5f82825260208201905092915050565b8281835e5f83830152505050565b5f601f19601f8301169050919050565b5f610a4682610a04565b610a508185610a0e565b9350610a60818560208601610a1e565b610a6981610a2c565b840191505092915050565b5f606083015f830151610a895f8601826109f5565b5060208301518482036020860152610aa18282610a3c565b91505060408301518482036040860152610abb8282610a3c565b9150508091505092915050565b5f6020820190508181035f830152610ae08184610a74565b905092915050565b5f81519050919050565b5f82825260208201905092915050565b5f819050602082019050919050565b5f606083015f830151610b265f8601826109f5565b5060208301518482036020860152610b3e8282610a3c565b91505060408301518482036040860152610b588282610a3c565b9150508091505092915050565b5f610b708383610b11565b905092915050565b5f602082019050919050565b5f610b8e82610ae8565b610b988185610af2565b935083602082028501610baa85610b02565b805f5b85811015610be55784840389528151610bc68582610b65565b9450610bd183610b78565b925060208a01995050600181019050610bad565b50829750879550505050505092915050565b5f6020820190508181035f830152610c0f8184610b84565b905092915050565b5f805f805f60608688031215610c3057610c2f6108b0565b5b5f610c3d888289016109b6565b955050602086013567ffffffffffffffff811115610c5e57610c5d6108b4565b5b610c6a888289016108c4565b9450945050604086013567ffffffffffffffff811115610c8d57610c8c6108b4565b5b610c99888289016108c4565b92509250509295509295909350565b7f4e487b71000000000000000000000000000000000000000000000000000000005f52604160045260245ffd5b7f4e487b71000000000000000000000000000000000000000000000000000000005f52602260045260245ffd5b5f6002820490506001821680610d1957607f821691505b602082108103610d2c57610d2b610cd5565b5b50919050565b5f819050815f5260205f209050919050565b5f6020601f8301049050919050565b5f82821b905092915050565b5f60088302610d8e7fffffffffffffffffffffffffffffffffffffffffffffffffffffffffffffffff82610d53565b610d988683610d53565b95508019841693508086168417925050509392505050565b5f819050919050565b5f610dd3610dce610dc984610997565b610db0565b610997565b9050919050565b5f819050919050565b610dec83610db9565b610e00610df882610dda565b848454610d5f565b825550505050565b5f90565b610e14610e08565b610e1f818484610de3565b505050565b5b81811015610e4257610e375f82610e0c565b600181019050610e25565b5050565b601f821115610e8757610e5881610d32565b610e6184610d44565b81016020851015610e70578190505b610e84610e7c85610d44565b830182610e24565b50505b505050565b5f82821c905092915050565b5f610ea75f1984600802610e8c565b1980831691505092915050565b5f610ebf8383610e98565b9150826002028217905092915050565b610ed882610a04565b67ffffffffffffffff811115610ef157610ef0610ca8565b5b610efb8254610d02565b610f06828285610e46565b5f60209050601f831160018114610f37575f8415610f25578287015190505b610f2f8582610eb4565b865550610f96565b601f198416610f4586610d32565b5f5b82811015610f6c57848901518255600182019150602085019450602081019050610f47565b86831015610f895784890151610f85601f891682610e98565b8355505b6001600288020188555050505b505050505050565b7f4e487b71000000000000000000000000000000000000000000000000000000005f52601160045260245ffd5b5f610fd582610997565b91507fffffffffffffffffffffffffffffffffffffffffffffffffffffffffffffffff820361100757611006610f9e565b5b600182019050919050565b5f61101c82610997565b915061102783610997565b925082820390508181111561103f5761103e610f9e565b5b92915050565b61104e81610997565b82525050565b5f82825260208201905092915050565b828183375f83830152505050565b5f61107d8385611054565b935061108a838584611064565b61109383610a2c565b840190509392505050565b5f6040820190506110b15f830186611045565b81810360208301526110c4818486611072565b9050949350505050565b7f496e76616c6964204964000000000000000000000000000000000000000000005f82015250565b5f611102600a83611054565b915061110d826110ce565b602082019050919050565b5f6020820190508181035f83015261112f816110f6565b9050919050565b5f6020820190506111495f830184611045565b92915050565b5f61115982610997565b915061116483610997565b925082820190508082111561117c5761117b610f9e565b5b92915050565b7f4e487b71000000000000000000000000000000000000000000000000000000005f52603260045260245ffdfea2646970667358221220d702818393a578be40d654acda4fb4501a72aeb60a03b2246464b9d54ee338a264736f6c634300081a0033",
					"opcodes": "PUSH1 0x80 PUSH1 0x40 MSTORE PUSH1 0x1 PUSH1 0x5 SSTORE CALLVALUE DUP1 ISZERO PUSH1 0x13 JUMPI PUSH0 DUP1 REVERT JUMPDEST POP CALLER PUSH0 DUP1 PUSH2 0x100 EXP DUP2 SLOAD DUP2 PUSH20 0xFFFFFFFFFFFFFFFFFFFFFFFFFFFFFFFFFFFFFFFF MUL NOT AND SWAP1 DUP4 PUSH20 0xFFFFFFFFFFFFFFFFFFFFFFFFFFFFFFFFFFFFFFFF AND MUL OR SWAP1 SSTORE POP PUSH2 0x11E5 DUP1 PUSH2 0x60 PUSH0 CODECOPY PUSH0 RETURN INVALID PUSH1 0x80 PUSH1 0x40 MSTORE CALLVALUE DUP1 ISZERO PUSH2 0xF JUMPI PUSH0 DUP1 REVERT JUMPDEST POP PUSH1 0x4 CALLDATASIZE LT PUSH2 0x55 JUMPI PUSH0 CALLDATALOAD PUSH1 0xE0 SHR DUP1 PUSH4 0x292A4585 EQ PUSH2 0x59 JUMPI DUP1 PUSH4 0x3B3D7E56 EQ PUSH2 0x75 JUMPI DUP1 PUSH4 0x560F3192 EQ PUSH2 0xA5 JUMPI DUP1 PUSH4 0x997C21A5 EQ PUSH2 0xC1 JUMPI DUP1 PUSH4 0xC72EF41F EQ PUSH2 0xDF JUMPI JUMPDEST PUSH0 DUP1 REVERT JUMPDEST PUSH2 0x73 PUSH1 0x4 DUP1 CALLDATASIZE SUB DUP2 ADD SWAP1 PUSH2 0x6E SWAP2 SWAP1 PUSH2 0x919 JUMP JUMPDEST PUSH2 0xFB JUMP JUMPDEST STOP JUMPDEST PUSH2 0x8F PUSH1 0x4 DUP1 CALLDATASIZE SUB DUP2 ADD SWAP1 PUSH2 0x8A SWAP2 SWAP1 PUSH2 0x9CA JUMP JUMPDEST PUSH2 0x24E JUMP JUMPDEST PUSH1 0x40 MLOAD PUSH2 0x9C SWAP2 SWAP1 PUSH2 0xAC8 JUMP JUMPDEST PUSH1 0x40 MLOAD DUP1 SWAP2 SUB SWAP1 RETURN JUMPDEST PUSH2 0xBF PUSH1 0x4 DUP1 CALLDATASIZE SUB DUP2 ADD SWAP1 PUSH2 0xBA SWAP2 SWAP1 PUSH2 0x9CA JUMP JUMPDEST PUSH2 0x3F4 JUMP JUMPDEST STOP JUMPDEST PUSH2 0xC9 PUSH2 0x4B8 JUMP JUMPDEST PUSH1 0x40 MLOAD PUSH2 0xD6 SWAP2 SWAP1 PUSH2 0xBF7 JUMP JUMPDEST PUSH1 0x40 MLOAD DUP1 SWAP2 SUB SWAP1 RETURN JUMPDEST PUSH2 0xF9 PUSH1 0x4 DUP1 CALLDATASIZE SUB DUP2 ADD SWAP1 PUSH2 0xF4 SWAP2 SWAP1 PUSH2 0xC17 JUMP JUMPDEST PUSH2 0x6BB JUMP JUMPDEST STOP JUMPDEST PUSH1 0x40 MLOAD DUP1 PUSH1 0x60 ADD PUSH1 0x40 MSTORE DUP1 PUSH1 0x5 SLOAD DUP2 MSTORE PUSH1 0x20 ADD DUP6 DUP6 DUP1 DUP1 PUSH1 0x1F ADD PUSH1 0x20 DUP1 SWAP2 DIV MUL PUSH1 0x20 ADD PUSH1 0x40 MLOAD SWAP1 DUP2 ADD PUSH1 0x40 MSTORE DUP1 SWAP4 SWAP3 SWAP2 SWAP1 DUP2 DUP2 MSTORE PUSH1 0x20 ADD DUP4 DUP4 DUP1 DUP3 DUP5 CALLDATACOPY PUSH0 DUP2 DUP5 ADD MSTORE PUSH1 0x1F NOT PUSH1 0x1F DUP3 ADD AND SWAP1 POP DUP1 DUP4 ADD SWAP3 POP POP POP POP POP POP POP DUP2 MSTORE PUSH1 0x20 ADD DUP4 DUP4 DUP1 DUP1 PUSH1 0x1F ADD PUSH1 0x20 DUP1 SWAP2 DIV MUL PUSH1 0x20 ADD PUSH1 0x40 MLOAD SWAP1 DUP2 ADD PUSH1 0x40 MSTORE DUP1 SWAP4 SWAP3 SWAP2 SWAP1 DUP2 DUP2 MSTORE PUSH1 0x20 ADD DUP4 DUP4 DUP1 DUP3 DUP5 CALLDATACOPY PUSH0 DUP2 DUP5 ADD MSTORE PUSH1 0x1F NOT PUSH1 0x1F DUP3 ADD AND SWAP1 POP DUP1 DUP4 ADD SWAP3 POP POP POP POP POP POP POP DUP2 MSTORE POP PUSH1 0x4 PUSH0 PUSH1 0x5 SLOAD DUP2 MSTORE PUSH1 0x20 ADD SWAP1 DUP2 MSTORE PUSH1 0x20 ADD PUSH0 KECCAK256 PUSH0 DUP3 ADD MLOAD DUP2 PUSH0 ADD SSTORE PUSH1 0x20 DUP3 ADD MLOAD DUP2 PUSH1 0x1 ADD SWAP1 DUP2 PUSH2 0x1CE SWAP2 SWAP1 PUSH2 0xECF JUMP JUMPDEST POP PUSH1 0x40 DUP3 ADD MLOAD DUP2 PUSH1 0x2 ADD SWAP1 DUP2 PUSH2 0x1E4 SWAP2 SWAP1 PUSH2 0xECF JUMP JUMPDEST POP SWAP1 POP POP PUSH1 0x5 PUSH0 DUP2 SLOAD DUP1 SWAP3 SWAP2 SWAP1 PUSH2 0x1FA SWAP1 PUSH2 0xFCB JUMP JUMPDEST SWAP2 SWAP1 POP SSTORE POP PUSH32 0x8D2940774D17F73B208E757BC4B4290CF4D29D6A7EB353D4B72E5EB87E73844D PUSH1 0x1 PUSH1 0x5 SLOAD PUSH2 0x22F SWAP2 SWAP1 PUSH2 0x1012 JUMP JUMPDEST DUP6 DUP6 PUSH1 0x40 MLOAD PUSH2 0x240 SWAP4 SWAP3 SWAP2 SWAP1 PUSH2 0x109E JUMP JUMPDEST PUSH1 0x40 MLOAD DUP1 SWAP2 SUB SWAP1 LOG1 POP POP POP POP JUMP JUMPDEST PUSH2 0x256 PUSH2 0x838 JUMP JUMPDEST DUP2 PUSH0 DUP2 EQ ISZERO DUP1 ISZERO PUSH2 0x268 JUMPI POP PUSH1 0x5 SLOAD DUP2 LT JUMPDEST PUSH2 0x2A7 JUMPI PUSH1 0x40 MLOAD PUSH32 0x8C379A000000000000000000000000000000000000000000000000000000000 DUP2 MSTORE PUSH1 0x4 ADD PUSH2 0x29E SWAP1 PUSH2 0x1118 JUMP JUMPDEST PUSH1 0x40 MLOAD DUP1 SWAP2 SUB SWAP1 REVERT JUMPDEST PUSH1 0x4 PUSH0 DUP5 DUP2 MSTORE PUSH1 0x20 ADD SWAP1 DUP2 MSTORE PUSH1 0x20 ADD PUSH0 KECCAK256 PUSH1 0x40 MLOAD DUP1 PUSH1 0x60 ADD PUSH1 0x40 MSTORE SWAP1 DUP2 PUSH0 DUP3 ADD SLOAD DUP2 MSTORE PUSH1 0x20 ADD PUSH1 0x1 DUP3 ADD DUP1 SLOAD PUSH2 0x2DC SWAP1 PUSH2 0xD02 JUMP JUMPDEST DUP1 PUSH1 0x1F ADD PUSH1 0x20 DUP1 SWAP2 DIV MUL PUSH1 0x20 ADD PUSH1 0x40 MLOAD SWAP1 DUP2 ADD PUSH1 0x40 MSTORE DUP1 SWAP3 SWAP2 SWAP1 DUP2 DUP2 MSTORE PUSH1 0x20 ADD DUP3 DUP1 SLOAD PUSH2 0x308 SWAP1 PUSH2 0xD02 JUMP JUMPDEST DUP1 ISZERO PUSH2 0x353 JUMPI DUP1 PUSH1 0x1F LT PUSH2 0x32A JUMPI PUSH2 0x100 DUP1 DUP4 SLOAD DIV MUL DUP4 MSTORE SWAP2 PUSH1 0x20 ADD SWAP2 PUSH2 0x353 JUMP JUMPDEST DUP3 ADD SWAP2 SWAP1 PUSH0 MSTORE PUSH1 0x20 PUSH0 KECCAK256 SWAP1 JUMPDEST DUP2 SLOAD DUP2 MSTORE SWAP1 PUSH1 0x1 ADD SWAP1 PUSH1 0x20 ADD DUP1 DUP4 GT PUSH2 0x336 JUMPI DUP3 SWAP1 SUB PUSH1 0x1F AND DUP3 ADD SWAP2 JUMPDEST POP POP POP POP POP DUP2 MSTORE PUSH1 0x20 ADD PUSH1 0x2 DUP3 ADD DUP1 SLOAD PUSH2 0x36C SWAP1 PUSH2 0xD02 JUMP JUMPDEST DUP1 PUSH1 0x1F ADD PUSH1 0x20 DUP1 SWAP2 DIV MUL PUSH1 0x20 ADD PUSH1 0x40 MLOAD SWAP1 DUP2 ADD PUSH1 0x40 MSTORE DUP1 SWAP3 SWAP2 SWAP1 DUP2 DUP2 MSTORE PUSH1 0x20 ADD DUP3 DUP1 SLOAD PUSH2 0x398 SWAP1 PUSH2 0xD02 JUMP JUMPDEST DUP1 ISZERO PUSH2 0x3E3 JUMPI DUP1 PUSH1 0x1F LT PUSH2 0x3BA JUMPI PUSH2 0x100 DUP1 DUP4 SLOAD DIV MUL DUP4 MSTORE SWAP2 PUSH1 0x20 ADD SWAP2 PUSH2 0x3E3 JUMP JUMPDEST DUP3 ADD SWAP2 SWAP1 PUSH0 MSTORE PUSH1 0x20 PUSH0 KECCAK256 SWAP1 JUMPDEST DUP2 SLOAD DUP2 MSTORE SWAP1 PUSH1 0x1 ADD SWAP1 PUSH1 0x20 ADD DUP1 DUP4 GT PUSH2 0x3C6 JUMPI DUP3 SWAP1 SUB PUSH1 0x1F AND DUP3 ADD SWAP2 JUMPDEST POP POP POP POP POP DUP2 MSTORE POP POP SWAP2 POP POP SWAP2 SWAP1 POP JUMP JUMPDEST DUP1 PUSH0 DUP2 EQ ISZERO DUP1 ISZERO PUSH2 0x406 JUMPI POP PUSH1 0x5 SLOAD DUP2 LT JUMPDEST PUSH2 0x445 JUMPI PUSH1 0x40 MLOAD PUSH32 0x8C379A000000000000000000000000000000000000000000000000000000000 DUP2 MSTORE PUSH1 0x4 ADD PUSH2 0x43C SWAP1 PUSH2 0x1118 JUMP JUMPDEST PUSH1 0x40 MLOAD DUP1 SWAP2 SUB SWAP1 REVERT JUMPDEST PUSH1 0x4 PUSH0 DUP4 DUP2 MSTORE PUSH1 0x20 ADD SWAP1 DUP2 MSTORE PUSH1 0x20 ADD PUSH0 KECCAK256 PUSH0 DUP1 DUP3 ADD PUSH0 SWAP1 SSTORE PUSH1 0x1 DUP3 ADD PUSH0 PUSH2 0x46C SWAP2 SWAP1 PUSH2 0x858 JUMP JUMPDEST PUSH1 0x2 DUP3 ADD PUSH0 PUSH2 0x47B SWAP2 SWAP1 PUSH2 0x858 JUMP JUMPDEST POP POP PUSH32 0xEAE6AD3B4B47002B66D830FDA22AECA77D9EBC4B21656B0C80880F26FFBFDF34 DUP3 PUSH1 0x40 MLOAD PUSH2 0x4AC SWAP2 SWAP1 PUSH2 0x1136 JUMP JUMPDEST PUSH1 0x40 MLOAD DUP1 SWAP2 SUB SWAP1 LOG1 POP POP JUMP JUMPDEST PUSH1 0x60 PUSH0 PUSH1 0x1 PUSH1 0x5 SLOAD PUSH2 0x4CA SWAP2 SWAP1 PUSH2 0x1012 JUMP JUMPDEST PUSH8 0xFFFFFFFFFFFFFFFF DUP2 GT ISZERO PUSH2 0x4E3 JUMPI PUSH2 0x4E2 PUSH2 0xCA8 JUMP JUMPDEST JUMPDEST PUSH1 0x40 MLOAD SWAP1 DUP1 DUP3 MSTORE DUP1 PUSH1 0x20 MUL PUSH1 0x20 ADD DUP3 ADD PUSH1 0x40 MSTORE DUP1 ISZERO PUSH2 0x51C JUMPI DUP2 PUSH1 0x20 ADD JUMPDEST PUSH2 0x509 PUSH2 0x838 JUMP JUMPDEST DUP2 MSTORE PUSH1 0x20 ADD SWAP1 PUSH1 0x1 SWAP1 SUB SWAP1 DUP2 PUSH2 0x501 JUMPI SWAP1 POP JUMPDEST POP SWAP1 POP PUSH0 JUMPDEST PUSH1 0x1 PUSH1 0x5 SLOAD PUSH2 0x530 SWAP2 SWAP1 PUSH2 0x1012 JUMP JUMPDEST DUP2 LT ISZERO PUSH2 0x6B3 JUMPI PUSH1 0x4 PUSH0 PUSH1 0x1 DUP4 PUSH2 0x547 SWAP2 SWAP1 PUSH2 0x114F JUMP JUMPDEST DUP2 MSTORE PUSH1 0x20 ADD SWAP1 DUP2 MSTORE PUSH1 0x20 ADD PUSH0 KECCAK256 PUSH1 0x40 MLOAD DUP1 PUSH1 0x60 ADD PUSH1 0x40 MSTORE SWAP1 DUP2 PUSH0 DUP3 ADD SLOAD DUP2 MSTORE PUSH1 0x20 ADD PUSH1 0x1 DUP3 ADD DUP1 SLOAD PUSH2 0x578 SWAP1 PUSH2 0xD02 JUMP JUMPDEST DUP1 PUSH1 0x1F ADD PUSH1 0x20 DUP1 SWAP2 DIV MUL PUSH1 0x20 ADD PUSH1 0x40 MLOAD SWAP1 DUP2 ADD PUSH1 0x40 MSTORE DUP1 SWAP3 SWAP2 SWAP1 DUP2 DUP2 MSTORE PUSH1 0x20 ADD DUP3 DUP1 SLOAD PUSH2 0x5A4 SWAP1 PUSH2 0xD02 JUMP JUMPDEST DUP1 ISZERO PUSH2 0x5EF JUMPI DUP1 PUSH1 0x1F LT PUSH2 0x5C6 JUMPI PUSH2 0x100 DUP1 DUP4 SLOAD DIV MUL DUP4 MSTORE SWAP2 PUSH1 0x20 ADD SWAP2 PUSH2 0x5EF JUMP JUMPDEST DUP3 ADD SWAP2 SWAP1 PUSH0 MSTORE PUSH1 0x20 PUSH0 KECCAK256 SWAP1 JUMPDEST DUP2 SLOAD DUP2 MSTORE SWAP1 PUSH1 0x1 ADD SWAP1 PUSH1 0x20 ADD DUP1 DUP4 GT PUSH2 0x5D2 JUMPI DUP3 SWAP1 SUB PUSH1 0x1F AND DUP3 ADD SWAP2 JUMPDEST POP POP POP POP POP DUP2 MSTORE PUSH1 0x20 ADD PUSH1 0x2 DUP3 ADD DUP1 SLOAD PUSH2 0x608 SWAP1 PUSH2 0xD02 JUMP JUMPDEST DUP1 PUSH1 0x1F ADD PUSH1 0x20 DUP1 SWAP2 DIV MUL PUSH1 0x20 ADD PUSH1 0x40 MLOAD SWAP1 DUP2 ADD PUSH1 0x40 MSTORE DUP1 SWAP3 SWAP2 SWAP1 DUP2 DUP2 MSTORE PUSH1 0x20 ADD DUP3 DUP1 SLOAD PUSH2 0x634 SWAP1 PUSH2 0xD02 JUMP JUMPDEST DUP1 ISZERO PUSH2 0x67F JUMPI DUP1 PUSH1 0x1F LT PUSH2 0x656 JUMPI PUSH2 0x100 DUP1 DUP4 SLOAD DIV MUL DUP4 MSTORE SWAP2 PUSH1 0x20 ADD SWAP2 PUSH2 0x67F JUMP JUMPDEST DUP3 ADD SWAP2 SWAP1 PUSH0 MSTORE PUSH1 0x20 PUSH0 KECCAK256 SWAP1 JUMPDEST DUP2 SLOAD DUP2 MSTORE SWAP1 PUSH1 0x1 ADD SWAP1 PUSH1 0x20 ADD DUP1 DUP4 GT PUSH2 0x662 JUMPI DUP3 SWAP1 SUB PUSH1 0x1F AND DUP3 ADD SWAP2 JUMPDEST POP POP POP POP POP DUP2 MSTORE POP POP DUP3 DUP3 DUP2 MLOAD DUP2 LT PUSH2 0x69B JUMPI PUSH2 0x69A PUSH2 0x1182 JUMP JUMPDEST JUMPDEST PUSH1 0x20 MUL PUSH1 0x20 ADD ADD DUP2 SWAP1 MSTORE POP DUP1 DUP1 PUSH1 0x1 ADD SWAP2 POP POP PUSH2 0x521 JUMP JUMPDEST POP DUP1 SWAP2 POP POP SWAP1 JUMP JUMPDEST DUP5 PUSH0 DUP2 EQ ISZERO DUP1 ISZERO PUSH2 0x6CD JUMPI POP PUSH1 0x5 SLOAD DUP2 LT JUMPDEST PUSH2 0x70C JUMPI PUSH1 0x40 MLOAD PUSH32 0x8C379A000000000000000000000000000000000000000000000000000000000 DUP2 MSTORE PUSH1 0x4 ADD PUSH2 0x703 SWAP1 PUSH2 0x1118 JUMP JUMPDEST PUSH1 0x40 MLOAD DUP1 SWAP2 SUB SWAP1 REVERT JUMPDEST PUSH1 0x40 MLOAD DUP1 PUSH1 0x60 ADD PUSH1 0x40 MSTORE DUP1 DUP8 DUP2 MSTORE PUSH1 0x20 ADD DUP7 DUP7 DUP1 DUP1 PUSH1 0x1F ADD PUSH1 0x20 DUP1 SWAP2 DIV MUL PUSH1 0x20 ADD PUSH1 0x40 MLOAD SWAP1 DUP2 ADD PUSH1 0x40 MSTORE DUP1 SWAP4 SWAP3 SWAP2 SWAP1 DUP2 DUP2 MSTORE PUSH1 0x20 ADD DUP4 DUP4 DUP1 DUP3 DUP5 CALLDATACOPY PUSH0 DUP2 DUP5 ADD MSTORE PUSH1 0x1F NOT PUSH1 0x1F DUP3 ADD AND SWAP1 POP DUP1 DUP4 ADD SWAP3 POP POP POP POP POP POP POP DUP2 MSTORE PUSH1 0x20 ADD DUP5 DUP5 DUP1 DUP1 PUSH1 0x1F ADD PUSH1 0x20 DUP1 SWAP2 DIV MUL PUSH1 0x20 ADD PUSH1 0x40 MLOAD SWAP1 DUP2 ADD PUSH1 0x40 MSTORE DUP1 SWAP4 SWAP3 SWAP2 SWAP1 DUP2 DUP2 MSTORE PUSH1 0x20 ADD DUP4 DUP4 DUP1 DUP3 DUP5 CALLDATACOPY PUSH0 DUP2 DUP5 ADD MSTORE PUSH1 0x1F NOT PUSH1 0x1F DUP3 ADD AND SWAP1 POP DUP1 DUP4 ADD SWAP3 POP POP POP POP POP POP POP DUP2 MSTORE POP PUSH1 0x4 PUSH0 DUP9 DUP2 MSTORE PUSH1 0x20 ADD SWAP1 DUP2 MSTORE PUSH1 0x20 ADD PUSH0 KECCAK256 PUSH0 DUP3 ADD MLOAD DUP2 PUSH0 ADD SSTORE PUSH1 0x20 DUP3 ADD MLOAD DUP2 PUSH1 0x1 ADD SWAP1 DUP2 PUSH2 0x7DB SWAP2 SWAP1 PUSH2 0xECF JUMP JUMPDEST POP PUSH1 0x40 DUP3 ADD MLOAD DUP2 PUSH1 0x2 ADD SWAP1 DUP2 PUSH2 0x7F1 SWAP2 SWAP1 PUSH2 0xECF JUMP JUMPDEST POP SWAP1 POP POP PUSH32 0x943ADABF122C6AB07969FD6D8650CB507D5CBB254D4D8F7FA5ABD989EA2B54D0 DUP7 DUP7 DUP7 PUSH1 0x40 MLOAD PUSH2 0x828 SWAP4 SWAP3 SWAP2 SWAP1 PUSH2 0x109E JUMP JUMPDEST PUSH1 0x40 MLOAD DUP1 SWAP2 SUB SWAP1 LOG1 POP POP POP POP POP POP JUMP JUMPDEST PUSH1 0x40 MLOAD DUP1 PUSH1 0x60 ADD PUSH1 0x40 MSTORE DUP1 PUSH0 DUP2 MSTORE PUSH1 0x20 ADD PUSH1 0x60 DUP2 MSTORE PUSH1 0x20 ADD PUSH1 0x60 DUP2 MSTORE POP SWAP1 JUMP JUMPDEST POP DUP1 SLOAD PUSH2 0x864 SWAP1 PUSH2 0xD02 JUMP JUMPDEST PUSH0 DUP3 SSTORE DUP1 PUSH1 0x1F LT PUSH2 0x875 JUMPI POP PUSH2 0x892 JUMP JUMPDEST PUSH1 0x1F ADD PUSH1 0x20 SWAP1 DIV SWAP1 PUSH0 MSTORE PUSH1 0x20 PUSH0 KECCAK256 SWAP1 DUP2 ADD SWAP1 PUSH2 0x891 SWAP2 SWAP1 PUSH2 0x895 JUMP JUMPDEST JUMPDEST POP JUMP JUMPDEST JUMPDEST DUP1 DUP3 GT ISZERO PUSH2 0x8AC JUMPI PUSH0 DUP2 PUSH0 SWAP1 SSTORE POP PUSH1 0x1 ADD PUSH2 0x896 JUMP JUMPDEST POP SWAP1 JUMP JUMPDEST PUSH0 DUP1 REVERT JUMPDEST PUSH0 DUP1 REVERT JUMPDEST PUSH0 DUP1 REVERT JUMPDEST PUSH0 DUP1 REVERT JUMPDEST PUSH0 DUP1 REVERT JUMPDEST PUSH0 DUP1 DUP4 PUSH1 0x1F DUP5 ADD SLT PUSH2 0x8D9 JUMPI PUSH2 0x8D8 PUSH2 0x8B8 JUMP JUMPDEST JUMPDEST DUP3 CALLDATALOAD SWAP1 POP PUSH8 0xFFFFFFFFFFFFFFFF DUP2 GT ISZERO PUSH2 0x8F6 JUMPI PUSH2 0x8F5 PUSH2 0x8BC JUMP JUMPDEST JUMPDEST PUSH1 0x20 DUP4 ADD SWAP2 POP DUP4 PUSH1 0x1 DUP3 MUL DUP4 ADD GT ISZERO PUSH2 0x912 JUMPI PUSH2 0x911 PUSH2 0x8C0 JUMP JUMPDEST JUMPDEST SWAP3 POP SWAP3 SWAP1 POP JUMP JUMPDEST PUSH0 DUP1 PUSH0 DUP1 PUSH1 0x40 DUP6 DUP8 SUB SLT ISZERO PUSH2 0x931 JUMPI PUSH2 0x930 PUSH2 0x8B0 JUMP JUMPDEST JUMPDEST PUSH0 DUP6 ADD CALLDATALOAD PUSH8 0xFFFFFFFFFFFFFFFF DUP2 GT ISZERO PUSH2 0x94E JUMPI PUSH2 0x94D PUSH2 0x8B4 JUMP JUMPDEST JUMPDEST PUSH2 0x95A DUP8 DUP3 DUP9 ADD PUSH2 0x8C4 JUMP JUMPDEST SWAP5 POP SWAP5 POP POP PUSH1 0x20 DUP6 ADD CALLDATALOAD PUSH8 0xFFFFFFFFFFFFFFFF DUP2 GT ISZERO PUSH2 0x97D JUMPI PUSH2 0x97C PUSH2 0x8B4 JUMP JUMPDEST JUMPDEST PUSH2 0x989 DUP8 DUP3 DUP9 ADD PUSH2 0x8C4 JUMP JUMPDEST SWAP3 POP SWAP3 POP POP SWAP3 SWAP6 SWAP2 SWAP5 POP SWAP3 POP JUMP JUMPDEST PUSH0 DUP2 SWAP1 POP SWAP2 SWAP1 POP JUMP JUMPDEST PUSH2 0x9A9 DUP2 PUSH2 0x997 JUMP JUMPDEST DUP2 EQ PUSH2 0x9B3 JUMPI PUSH0 DUP1 REVERT JUMPDEST POP JUMP JUMPDEST PUSH0 DUP2 CALLDATALOAD SWAP1 POP PUSH2 0x9C4 DUP2 PUSH2 0x9A0 JUMP JUMPDEST SWAP3 SWAP2 POP POP JUMP JUMPDEST PUSH0 PUSH1 0x20 DUP3 DUP5 SUB SLT ISZERO PUSH2 0x9DF JUMPI PUSH2 0x9DE PUSH2 0x8B0 JUMP JUMPDEST JUMPDEST PUSH0 PUSH2 0x9EC DUP5 DUP3 DUP6 ADD PUSH2 0x9B6 JUMP JUMPDEST SWAP2 POP POP SWAP3 SWAP2 POP POP JUMP JUMPDEST PUSH2 0x9FE DUP2 PUSH2 0x997 JUMP JUMPDEST DUP3 MSTORE POP POP JUMP JUMPDEST PUSH0 DUP2 MLOAD SWAP1 POP SWAP2 SWAP1 POP JUMP JUMPDEST PUSH0 DUP3 DUP3 MSTORE PUSH1 0x20 DUP3 ADD SWAP1 POP SWAP3 SWAP2 POP POP JUMP JUMPDEST DUP3 DUP2 DUP4 MCOPY PUSH0 DUP4 DUP4 ADD MSTORE POP POP POP JUMP JUMPDEST PUSH0 PUSH1 0x1F NOT PUSH1 0x1F DUP4 ADD AND SWAP1 POP SWAP2 SWAP1 POP JUMP JUMPDEST PUSH0 PUSH2 0xA46 DUP3 PUSH2 0xA04 JUMP JUMPDEST PUSH2 0xA50 DUP2 DUP6 PUSH2 0xA0E JUMP JUMPDEST SWAP4 POP PUSH2 0xA60 DUP2 DUP6 PUSH1 0x20 DUP7 ADD PUSH2 0xA1E JUMP JUMPDEST PUSH2 0xA69 DUP2 PUSH2 0xA2C JUMP JUMPDEST DUP5 ADD SWAP2 POP POP SWAP3 SWAP2 POP POP JUMP JUMPDEST PUSH0 PUSH1 0x60 DUP4 ADD PUSH0 DUP4 ADD MLOAD PUSH2 0xA89 PUSH0 DUP7 ADD DUP3 PUSH2 0x9F5 JUMP JUMPDEST POP PUSH1 0x20 DUP4 ADD MLOAD DUP5 DUP3 SUB PUSH1 0x20 DUP7 ADD MSTORE PUSH2 0xAA1 DUP3 DUP3 PUSH2 0xA3C JUMP JUMPDEST SWAP2 POP POP PUSH1 0x40 DUP4 ADD MLOAD DUP5 DUP3 SUB PUSH1 0x40 DUP7 ADD MSTORE PUSH2 0xABB DUP3 DUP3 PUSH2 0xA3C JUMP JUMPDEST SWAP2 POP POP DUP1 SWAP2 POP POP SWAP3 SWAP2 POP POP JUMP JUMPDEST PUSH0 PUSH1 0x20 DUP3 ADD SWAP1 POP DUP2 DUP2 SUB PUSH0 DUP4 ADD MSTORE PUSH2 0xAE0 DUP2 DUP5 PUSH2 0xA74 JUMP JUMPDEST SWAP1 POP SWAP3 SWAP2 POP POP JUMP JUMPDEST PUSH0 DUP2 MLOAD SWAP1 POP SWAP2 SWAP1 POP JUMP JUMPDEST PUSH0 DUP3 DUP3 MSTORE PUSH1 0x20 DUP3 ADD SWAP1 POP SWAP3 SWAP2 POP POP JUMP JUMPDEST PUSH0 DUP2 SWAP1 POP PUSH1 0x20 DUP3 ADD SWAP1 POP SWAP2 SWAP1 POP JUMP JUMPDEST PUSH0 PUSH1 0x60 DUP4 ADD PUSH0 DUP4 ADD MLOAD PUSH2 0xB26 PUSH0 DUP7 ADD DUP3 PUSH2 0x9F5 JUMP JUMPDEST POP PUSH1 0x20 DUP4 ADD MLOAD DUP5 DUP3 SUB PUSH1 0x20 DUP7 ADD MSTORE PUSH2 0xB3E DUP3 DUP3 PUSH2 0xA3C JUMP JUMPDEST SWAP2 POP POP PUSH1 0x40 DUP4 ADD MLOAD DUP5 DUP3 SUB PUSH1 0x40 DUP7 ADD MSTORE PUSH2 0xB58 DUP3 DUP3 PUSH2 0xA3C JUMP JUMPDEST SWAP2 POP POP DUP1 SWAP2 POP POP SWAP3 SWAP2 POP POP JUMP JUMPDEST PUSH0 PUSH2 0xB70 DUP4 DUP4 PUSH2 0xB11 JUMP JUMPDEST SWAP1 POP SWAP3 SWAP2 POP POP JUMP JUMPDEST PUSH0 PUSH1 0x20 DUP3 ADD SWAP1 POP SWAP2 SWAP1 POP JUMP JUMPDEST PUSH0 PUSH2 0xB8E DUP3 PUSH2 0xAE8 JUMP JUMPDEST PUSH2 0xB98 DUP2 DUP6 PUSH2 0xAF2 JUMP JUMPDEST SWAP4 POP DUP4 PUSH1 0x20 DUP3 MUL DUP6 ADD PUSH2 0xBAA DUP6 PUSH2 0xB02 JUMP JUMPDEST DUP1 PUSH0 JUMPDEST DUP6 DUP2 LT ISZERO PUSH2 0xBE5 JUMPI DUP5 DUP5 SUB DUP10 MSTORE DUP2 MLOAD PUSH2 0xBC6 DUP6 DUP3 PUSH2 0xB65 JUMP JUMPDEST SWAP5 POP PUSH2 0xBD1 DUP4 PUSH2 0xB78 JUMP JUMPDEST SWAP3 POP PUSH1 0x20 DUP11 ADD SWAP10 POP POP PUSH1 0x1 DUP2 ADD SWAP1 POP PUSH2 0xBAD JUMP JUMPDEST POP DUP3 SWAP8 POP DUP8 SWAP6 POP POP POP POP POP POP SWAP3 SWAP2 POP POP JUMP JUMPDEST PUSH0 PUSH1 0x20 DUP3 ADD SWAP1 POP DUP2 DUP2 SUB PUSH0 DUP4 ADD MSTORE PUSH2 0xC0F DUP2 DUP5 PUSH2 0xB84 JUMP JUMPDEST SWAP1 POP SWAP3 SWAP2 POP POP JUMP JUMPDEST PUSH0 DUP1 PUSH0 DUP1 PUSH0 PUSH1 0x60 DUP7 DUP9 SUB SLT ISZERO PUSH2 0xC30 JUMPI PUSH2 0xC2F PUSH2 0x8B0 JUMP JUMPDEST JUMPDEST PUSH0 PUSH2 0xC3D DUP9 DUP3 DUP10 ADD PUSH2 0x9B6 JUMP JUMPDEST SWAP6 POP POP PUSH1 0x20 DUP7 ADD CALLDATALOAD PUSH8 0xFFFFFFFFFFFFFFFF DUP2 GT ISZERO PUSH2 0xC5E JUMPI PUSH2 0xC5D PUSH2 0x8B4 JUMP JUMPDEST JUMPDEST PUSH2 0xC6A DUP9 DUP3 DUP10 ADD PUSH2 0x8C4 JUMP JUMPDEST SWAP5 POP SWAP5 POP POP PUSH1 0x40 DUP7 ADD CALLDATALOAD PUSH8 0xFFFFFFFFFFFFFFFF DUP2 GT ISZERO PUSH2 0xC8D JUMPI PUSH2 0xC8C PUSH2 0x8B4 JUMP JUMPDEST JUMPDEST PUSH2 0xC99 DUP9 DUP3 DUP10 ADD PUSH2 0x8C4 JUMP JUMPDEST SWAP3 POP SWAP3 POP POP SWAP3 SWAP6 POP SWAP3 SWAP6 SWAP1 SWAP4 POP JUMP JUMPDEST PUSH32 0x4E487B7100000000000000000000000000000000000000000000000000000000 PUSH0 MSTORE PUSH1 0x41 PUSH1 0x4 MSTORE PUSH1 0x24 PUSH0 REVERT JUMPDEST PUSH32 0x4E487B7100000000000000000000000000000000000000000000000000000000 PUSH0 MSTORE PUSH1 0x22 PUSH1 0x4 MSTORE PUSH1 0x24 PUSH0 REVERT JUMPDEST PUSH0 PUSH1 0x2 DUP3 DIV SWAP1 POP PUSH1 0x1 DUP3 AND DUP1 PUSH2 0xD19 JUMPI PUSH1 0x7F DUP3 AND SWAP2 POP JUMPDEST PUSH1 0x20 DUP3 LT DUP2 SUB PUSH2 0xD2C JUMPI PUSH2 0xD2B PUSH2 0xCD5 JUMP JUMPDEST JUMPDEST POP SWAP2 SWAP1 POP JUMP JUMPDEST PUSH0 DUP2 SWAP1 POP DUP2 PUSH0 MSTORE PUSH1 0x20 PUSH0 KECCAK256 SWAP1 POP SWAP2 SWAP1 POP JUMP JUMPDEST PUSH0 PUSH1 0x20 PUSH1 0x1F DUP4 ADD DIV SWAP1 POP SWAP2 SWAP1 POP JUMP JUMPDEST PUSH0 DUP3 DUP3 SHL SWAP1 POP SWAP3 SWAP2 POP POP JUMP JUMPDEST PUSH0 PUSH1 0x8 DUP4 MUL PUSH2 0xD8E PUSH32 0xFFFFFFFFFFFFFFFFFFFFFFFFFFFFFFFFFFFFFFFFFFFFFFFFFFFFFFFFFFFFFFFF DUP3 PUSH2 0xD53 JUMP JUMPDEST PUSH2 0xD98 DUP7 DUP4 PUSH2 0xD53 JUMP JUMPDEST SWAP6 POP DUP1 NOT DUP5 AND SWAP4 POP DUP1 DUP7 AND DUP5 OR SWAP3 POP POP POP SWAP4 SWAP3 POP POP POP JUMP JUMPDEST PUSH0 DUP2 SWAP1 POP SWAP2 SWAP1 POP JUMP JUMPDEST PUSH0 PUSH2 0xDD3 PUSH2 0xDCE PUSH2 0xDC9 DUP5 PUSH2 0x997 JUMP JUMPDEST PUSH2 0xDB0 JUMP JUMPDEST PUSH2 0x997 JUMP JUMPDEST SWAP1 POP SWAP2 SWAP1 POP JUMP JUMPDEST PUSH0 DUP2 SWAP1 POP SWAP2 SWAP1 POP JUMP JUMPDEST PUSH2 0xDEC DUP4 PUSH2 0xDB9 JUMP JUMPDEST PUSH2 0xE00 PUSH2 0xDF8 DUP3 PUSH2 0xDDA JUMP JUMPDEST DUP5 DUP5 SLOAD PUSH2 0xD5F JUMP JUMPDEST DUP3 SSTORE POP POP POP POP JUMP JUMPDEST PUSH0 SWAP1 JUMP JUMPDEST PUSH2 0xE14 PUSH2 0xE08 JUMP JUMPDEST PUSH2 0xE1F DUP2 DUP5 DUP5 PUSH2 0xDE3 JUMP JUMPDEST POP POP POP JUMP JUMPDEST JUMPDEST DUP2 DUP2 LT ISZERO PUSH2 0xE42 JUMPI PUSH2 0xE37 PUSH0 DUP3 PUSH2 0xE0C JUMP JUMPDEST PUSH1 0x1 DUP2 ADD SWAP1 POP PUSH2 0xE25 JUMP JUMPDEST POP POP JUMP JUMPDEST PUSH1 0x1F DUP3 GT ISZERO PUSH2 0xE87 JUMPI PUSH2 0xE58 DUP2 PUSH2 0xD32 JUMP JUMPDEST PUSH2 0xE61 DUP5 PUSH2 0xD44 JUMP JUMPDEST DUP2 ADD PUSH1 0x20 DUP6 LT ISZERO PUSH2 0xE70 JUMPI DUP2 SWAP1 POP JUMPDEST PUSH2 0xE84 PUSH2 0xE7C DUP6 PUSH2 0xD44 JUMP JUMPDEST DUP4 ADD DUP3 PUSH2 0xE24 JUMP JUMPDEST POP POP JUMPDEST POP POP POP JUMP JUMPDEST PUSH0 DUP3 DUP3 SHR SWAP1 POP SWAP3 SWAP2 POP POP JUMP JUMPDEST PUSH0 PUSH2 0xEA7 PUSH0 NOT DUP5 PUSH1 0x8 MUL PUSH2 0xE8C JUMP JUMPDEST NOT DUP1 DUP4 AND SWAP2 POP POP SWAP3 SWAP2 POP POP JUMP JUMPDEST PUSH0 PUSH2 0xEBF DUP4 DUP4 PUSH2 0xE98 JUMP JUMPDEST SWAP2 POP DUP3 PUSH1 0x2 MUL DUP3 OR SWAP1 POP SWAP3 SWAP2 POP POP JUMP JUMPDEST PUSH2 0xED8 DUP3 PUSH2 0xA04 JUMP JUMPDEST PUSH8 0xFFFFFFFFFFFFFFFF DUP2 GT ISZERO PUSH2 0xEF1 JUMPI PUSH2 0xEF0 PUSH2 0xCA8 JUMP JUMPDEST JUMPDEST PUSH2 0xEFB DUP3 SLOAD PUSH2 0xD02 JUMP JUMPDEST PUSH2 0xF06 DUP3 DUP3 DUP6 PUSH2 0xE46 JUMP JUMPDEST PUSH0 PUSH1 0x20 SWAP1 POP PUSH1 0x1F DUP4 GT PUSH1 0x1 DUP2 EQ PUSH2 0xF37 JUMPI PUSH0 DUP5 ISZERO PUSH2 0xF25 JUMPI DUP3 DUP8 ADD MLOAD SWAP1 POP JUMPDEST PUSH2 0xF2F DUP6 DUP3 PUSH2 0xEB4 JUMP JUMPDEST DUP7 SSTORE POP PUSH2 0xF96 JUMP JUMPDEST PUSH1 0x1F NOT DUP5 AND PUSH2 0xF45 DUP7 PUSH2 0xD32 JUMP JUMPDEST PUSH0 JUMPDEST DUP3 DUP2 LT ISZERO PUSH2 0xF6C JUMPI DUP5 DUP10 ADD MLOAD DUP3 SSTORE PUSH1 0x1 DUP3 ADD SWAP2 POP PUSH1 0x20 DUP6 ADD SWAP5 POP PUSH1 0x20 DUP2 ADD SWAP1 POP PUSH2 0xF47 JUMP JUMPDEST DUP7 DUP4 LT ISZERO PUSH2 0xF89 JUMPI DUP5 DUP10 ADD MLOAD PUSH2 0xF85 PUSH1 0x1F DUP10 AND DUP3 PUSH2 0xE98 JUMP JUMPDEST DUP4 SSTORE POP JUMPDEST PUSH1 0x1 PUSH1 0x2 DUP9 MUL ADD DUP9 SSTORE POP POP POP JUMPDEST POP POP POP POP POP POP JUMP JUMPDEST PUSH32 0x4E487B7100000000000000000000000000000000000000000000000000000000 PUSH0 MSTORE PUSH1 0x11 PUSH1 0x4 MSTORE PUSH1 0x24 PUSH0 REVERT JUMPDEST PUSH0 PUSH2 0xFD5 DUP3 PUSH2 0x997 JUMP JUMPDEST SWAP2 POP PUSH32 0xFFFFFFFFFFFFFFFFFFFFFFFFFFFFFFFFFFFFFFFFFFFFFFFFFFFFFFFFFFFFFFFF DUP3 SUB PUSH2 0x1007 JUMPI PUSH2 0x1006 PUSH2 0xF9E JUMP JUMPDEST JUMPDEST PUSH1 0x1 DUP3 ADD SWAP1 POP SWAP2 SWAP1 POP JUMP JUMPDEST PUSH0 PUSH2 0x101C DUP3 PUSH2 0x997 JUMP JUMPDEST SWAP2 POP PUSH2 0x1027 DUP4 PUSH2 0x997 JUMP JUMPDEST SWAP3 POP DUP3 DUP3 SUB SWAP1 POP DUP2 DUP2 GT ISZERO PUSH2 0x103F JUMPI PUSH2 0x103E PUSH2 0xF9E JUMP JUMPDEST JUMPDEST SWAP3 SWAP2 POP POP JUMP JUMPDEST PUSH2 0x104E DUP2 PUSH2 0x997 JUMP JUMPDEST DUP3 MSTORE POP POP JUMP JUMPDEST PUSH0 DUP3 DUP3 MSTORE PUSH1 0x20 DUP3 ADD SWAP1 POP SWAP3 SWAP2 POP POP JUMP JUMPDEST DUP3 DUP2 DUP4 CALLDATACOPY PUSH0 DUP4 DUP4 ADD MSTORE POP POP POP JUMP JUMPDEST PUSH0 PUSH2 0x107D DUP4 DUP6 PUSH2 0x1054 JUMP JUMPDEST SWAP4 POP PUSH2 0x108A DUP4 DUP6 DUP5 PUSH2 0x1064 JUMP JUMPDEST PUSH2 0x1093 DUP4 PUSH2 0xA2C JUMP JUMPDEST DUP5 ADD SWAP1 POP SWAP4 SWAP3 POP POP POP JUMP JUMPDEST PUSH0 PUSH1 0x40 DUP3 ADD SWAP1 POP PUSH2 0x10B1 PUSH0 DUP4 ADD DUP7 PUSH2 0x1045 JUMP JUMPDEST DUP2 DUP2 SUB PUSH1 0x20 DUP4 ADD MSTORE PUSH2 0x10C4 DUP2 DUP5 DUP7 PUSH2 0x1072 JUMP JUMPDEST SWAP1 POP SWAP5 SWAP4 POP POP POP POP JUMP JUMPDEST PUSH32 0x496E76616C696420496400000000000000000000000000000000000000000000 PUSH0 DUP3 ADD MSTORE POP JUMP JUMPDEST PUSH0 PUSH2 0x1102 PUSH1 0xA DUP4 PUSH2 0x1054 JUMP JUMPDEST SWAP2 POP PUSH2 0x110D DUP3 PUSH2 0x10CE JUMP JUMPDEST PUSH1 0x20 DUP3 ADD SWAP1 POP SWAP2 SWAP1 POP JUMP JUMPDEST PUSH0 PUSH1 0x20 DUP3 ADD SWAP1 POP DUP2 DUP2 SUB PUSH0 DUP4 ADD MSTORE PUSH2 0x112F DUP2 PUSH2 0x10F6 JUMP JUMPDEST SWAP1 POP SWAP2 SWAP1 POP JUMP JUMPDEST PUSH0 PUSH1 0x20 DUP3 ADD SWAP1 POP PUSH2 0x1149 PUSH0 DUP4 ADD DUP5 PUSH2 0x1045 JUMP JUMPDEST SWAP3 SWAP2 POP POP JUMP JUMPDEST PUSH0 PUSH2 0x1159 DUP3 PUSH2 0x997 JUMP JUMPDEST SWAP2 POP PUSH2 0x1164 DUP4 PUSH2 0x997 JUMP JUMPDEST SWAP3 POP DUP3 DUP3 ADD SWAP1 POP DUP1 DUP3 GT ISZERO PUSH2 0x117C JUMPI PUSH2 0x117B PUSH2 0xF9E JUMP JUMPDEST JUMPDEST SWAP3 SWAP2 POP POP JUMP JUMPDEST PUSH32 0x4E487B7100000000000000000000000000000000000000000000000000000000 PUSH0 MSTORE PUSH1 0x32 PUSH1 0x4 MSTORE PUSH1 0x24 PUSH0 REVERT INVALID LOG2 PUSH5 0x6970667358 0x22 SLT KECCAK256 0xD7 MUL DUP2 DUP4 SWAP4 0xA5 PUSH25 0xBE40D654ACDA4FB4501A72AEB60A03B2246464B9D54EE338A2 PUSH5 0x736F6C6343 STOP ADDMOD BYTE STOP CALLER "
				},
				"gasEstimates": {
					"creation": {
						"codeDepositCost": "916200",
						"executionCost": "47324",
						"totalCost": "963524"
					},
					"external": {
						"allTask()": "infinite",
						"createTask(string,string)": "infinite",
						"deleteTask(uint256)": "infinite",
						"updateTask(uint256,string,string)": "infinite",
						"viewTask(uint256)": "infinite"
					}
				},
				"methodIdentifiers": {
					"allTask()": "997c21a5",
					"createTask(string,string)": "292a4585",
					"deleteTask(uint256)": "560f3192",
					"updateTask(uint256,string,string)": "c72ef41f",
					"viewTask(uint256)": "3b3d7e56"
				}
			},
			"storageLayout": {
				"storage": [
					{
						"astId": 10,
						"contract": "Contracts/Todo.sol:ToDo",
						"label": "owner",
						"offset": 0,
						"slot": "0",
						"type": "t_address"
					},
					{
						"astId": 13,
						"contract": "Contracts/Todo.sol:ToDo",
						"label": "task",
						"offset": 0,
						"slot": "1",
						"type": "t_struct(Task)8_storage"
					},
					{
						"astId": 18,
						"contract": "Contracts/Todo.sol:ToDo",
						"label": "tasks",
						"offset": 0,
						"slot": "4",
						"type": "t_mapping(t_uint256,t_struct(Task)8_storage)"
					},
					{
						"astId": 21,
						"contract": "Contracts/Todo.sol:ToDo",
						"label": "taskId",
						"offset": 0,
						"slot": "5",
						"type": "t_uint256"
					}
				],
				"types": {
					"t_address": {
						"encoding": "inplace",
						"label": "address",
						"numberOfBytes": "20"
					},
					"t_mapping(t_uint256,t_struct(Task)8_storage)": {
						"encoding": "mapping",
						"key": "t_uint256",
						"label": "mapping(uint256 => struct ToDo.Task)",
						"numberOfBytes": "32",
						"value": "t_struct(Task)8_storage"
					},
					"t_string_storage": {
						"encoding": "bytes",
						"label": "string",
						"numberOfBytes": "32"
					},
					"t_struct(Task)8_storage": {
						"encoding": "inplace",
						"label": "struct ToDo.Task",
						"members": [
							{
								"astId": 3,
								"contract": "Contracts/Todo.sol:ToDo",
								"label": "id",
								"offset": 0,
								"slot": "0",
								"type": "t_uint256"
							},
							{
								"astId": 5,
								"contract": "Contracts/Todo.sol:ToDo",
								"label": "name",
								"offset": 0,
								"slot": "1",
								"type": "t_string_storage"
							},
							{
								"astId": 7,
								"contract": "Contracts/Todo.sol:ToDo",
								"label": "date",
								"offset": 0,
								"slot": "2",
								"type": "t_string_storage"
							}
						],
						"numberOfBytes": "96"
					},
					"t_uint256": {
						"encoding": "inplace",
						"label": "uint256",
						"numberOfBytes": "32"
					}
				}
			},
			"userdoc": {
				"kind": "user",
				"methods": {},
				"version": 1
			}
		}
	}
}